:100000006DC000008AC0000088C0000086C00000EB
:1000100084C0000082C0000080C000007EC00000DC
:100020007CC000007AC0000078C0000076C00000EC
:1000300074C0000072C0000070C000006EC00000FC
:100040006CC000000C94F111E0C2000066C000001A
:1000500064C00000ABC200003BC200005EC00000F4
:100060005CC000005AC0000058C0000056C000002C
:1000700054C0000052C0000050C000004EC000003C
:1000800063C20000E1C1000048C0000046C000009B
:1000900044C000001510CC0FCE0FD00FD20FD40FDC
:1000A0001B10CA0F1D101710D60FD80F1910E60F0E
:1000B000EA0FEC0FEE0FF00F1F10E40FE80FF20F36
:1000C000F40FF60F4B102E10301032103410361083
:1000D0004F102C1051104D1038103A1011241FBE23
:1000E000CFEFD0E1DEBFCDBF11E0A0E0B1E0E2E7AD
:1000F000FBE200E00BBF02C007900D92AC35B107E8
:10010000D9F72CE0ACE5B1E001C01D92AC33B207E9
:10011000E1F70E94AD100C94B71572CFCF93DF9327
:10012000EC014C855D85888199810E94BE122881F1
:1001300039818C859D85820F931F998388832E81B9
:100140003F818217930720F08C819D81998388835A
:100150008A859B8528853985821793071CF401962B
:100160009B878A87DF91CF910895CF93DF93FB011F
:100170001082FC0122853385232BF9F09B01EC01D1
:100180006281738144855585C9010E94BE122A810E
:100190003B818C859D85820F931F9B838A832E8153
:1001A0003F818217930721F48C819D819B838A83F1
:1001B0008A859B8501979B878A87DF91CF910895D8
:1001C000E0E7F2E047E352E05583448329E632E07A
:1001D0003783268322E330E0318720871386128617
:1001E00021E030E035872487518340835383428365
:1001F000ECE8F2E04AE652E055834483AFE6B2E031
:10020000B783A683A5E0B0E0B187A08713861286E6
:10021000358724875183408353834283611526E9C0
:1002200072078105910501F130F461157B44810568
:10023000910509F127C0611521EE7207810591052D
:1002400061F06115724C81409105E1F480E190E02C
:100250009093C5008093C4001BC082E290E090930D
:10026000C5008093C40014C083E390E09093C50060
:100270008093C4000DC087E690E09093C500809302
:10028000C40006C08FEC90E09093C5008093C4003A
:1002900082E08093C0008EE08093C20088E9809362
:1002A000C10080E091E09093390C8093380C089560
:1002B000EEE7F2E04AEB51E0558344832EE132E071
:1002C0003783268324E630E0318720871386128621
:1002D00021E030E035872487518340835383428374
:1002E000EAEAF1E04EE152E055834483A7E3B2E04D
:1002F000B783A683A9E1B0E0B187A08713861286F1
:10030000358724875183408353834283611526E9CF
:1003100072078105910501F130F461157B44810577
:10032000910509F127C0611521EE7207810591053C
:1003300061F06115724C81409105E1F480E190E03B
:100340009093CD008093CC001BC082E290E090930C
:10035000CD008093CC0014C083E390E09093CD0057
:100360008093CC000DC087E690E09093CD00809301
:10037000CC0006C08FEC90E09093CD008093CC0031
:1003800082E08093C80086E08093CA0088E9809369
:10039000C90008950F931F93CF93DF931F92CDB79A
:1003A000DEB7898301EC10E0F80180818F7D8083C6
:1003B000BE016F5F7F4F80E792E0B0DEF801808181
:1003C000806280830F90DF91CF911F910F910895EC
:1003D000CF93C82F8A3011F48DE0FADF8C2FDADF4B
:1003E00080E090E0CF9108950F931F93CF93DF9318
:1003F0001F92CDB7DEB7898309EC10E0F801808148
:100400008F7D8083BE016F5F7F4F8AEA91E086DE39
:10041000F8018081806280830F90DF91CF911F91DE
:100420000F91089569E672E08EE792E09EDE80917A
:100430006902089581E020918802309189021216A4
:1004400013060CF480E008951F920F920FB60F92DE
:1004500011240BB60F922F933F934F935F936F939B
:100460007F938F939F93AF93BF93EF93FF93CF931C
:10047000DF931F92CDB7DEB78091B4019091B501A3
:100480001816190654F4BE016F5F7F4F8AEA91E097
:100490006CDE89818093CE0005C0E9ECF0E08081BC
:1004A0008F7D80830F90DF91CF91FF91EF91BF916E
:1004B000AF919F918F917F916F915F914F913F91FC
:1004C0002F910F900BBE0F900FBE0F901F9018959D
:1004D0001F920F920FB60F9211240BB60F922F930B
:1004E0003F934F935F936F937F938F939F93AF93BC
:1004F000BF93EF93FF9380917A0290917B0218163D
:10050000190654F46CE571E080E792E02EDE8091EC
:100510005C018093C60005C0E1ECF0E080818F7D36
:100520008083FF91EF91BF91AF919F918F917F91C8
:100530006F915F914F913F912F910F900BBE0F9054
:100540000FBE0F901F9018951F920F920FB60F922B
:1005500011240BB60F922F933F934F935F936F939A
:100560007F938F939F93AF93BF93EF93FF9380916C
:10057000CE0080936F0286E00E9422106FE672E048
:100580008EE792E0CBDDFF91EF91BF91AF919F910C
:100590008F917F916F915F914F913F912F910F902C
:1005A0000BBE0F900FBE0F901F9018951F920F92C9
:1005B0000FB60F9211240BB60F922F933F934F93C8
:1005C0005F936F937F938F939F93AF93BF93EF93BB
:1005D000FF938091C60080939A026AE972E08CE8EA
:1005E00092E09CDDFF91EF91BF91AF919F918F9130
:1005F0007F916F915F914F913F912F910F900BBE23
:100600000F900FBE0F901F9018951F920F920FB66C
:100610000F9211240BB60F922F933F934F935F933A
:100620006F937F938F939F93AF93BF93CF93EF93EA
:10063000FF93EDEEF0E0C0818091EC00682F70E058
:10064000807F8083729562956F7067277F706727C0
:100650008091EE008F7DC1F52091F2008091F30032
:10066000E8E6F1E022952695277090E0880F991F23
:10067000880F991F880F991F822B91838083809107
:10068000EF008F70828390E0009759F0EBE6F1E085
:1006900085599E4FAAEFB0E02C912193E817F907F6
:1006A000D9F71092EE0080E88093EF00FB01EE0F87
:1006B000FF1FE456FD4F0190F081E02D88E691E0A8
:1006C0000995C093ED00D8C08091EE008F7B09F0B2
:1006D00057C0FB01EE0FFF1FE456FD4F0190F08164
:1006E000E02D88E691E0099580916A01882309F45C
:1006F00040C0E8E6F1E080819181969587959695D6
:100700008795969587958093F30080818295880FD1
:10071000807E8093F2001092F1001092F0008281AE
:10072000893019F081110DC01CC0EBE6F1E023E720
:1007300031E0AAEFB0E081918C93E217F307D9F78B
:1007400010C080E028E631E0AAEFB0E0E82FF0E04A
:10075000E859FE4F93819C938F5FF901928189172D
:10076000A8F31092EE0080916A01805C8093EF0004
:1007700004C01092EE001092EF00C093ED007CC018
:100780008091EE0090E08F77892BC1F52091F200E7
:100790008091F300E8E6F1E022952695277090E03D
:1007A000880F991F880F991F880F991F822B91839B
:1007B00080838091EF008F70828390E0009759F0E2
:1007C000EBE6F1E085599E4FAAEFB0E02C91219322
:1007D0008E179F07D9F71092EE0080E88093EF0004
:1007E000FB01EE0FFF1FE456FD4F0190F081E02D5D
:1007F00088E691E00995C093ED003EC08091EE003F
:100800008F75C1F52091F2008091F300E8E6F1E0E8
:1008100022952695277090E0880F991F880F991FC1
:10082000880F991F822B918380838091EF008F70B6
:10083000828390E0009759F0EBE6F1E085599E4FF6
:10084000AAEFB0E02C912193E817F907D9F710929D
:10085000EE0080E88093EF00FB01EE0FFF1FE456EF
:10086000FD4F0190F081E02D88E691E00995C0935D
:10087000ED0002C08091EE00FF91EF91CF91BF910A
:10088000AF919F918F917F916F915F914F913F9128
:100890002F910F900BBE0F900FBE0F901F901895C9
:1008A000CF93DF93C82FE82FF0E0EE0FFF1FE45641
:1008B000FD4F0190F081E02D682F8DE591E00995C5
:1008C000C295C07FC093ED0080915F01882309F439
:1008D0005CC01092EE001092EF008F3FC1F1EDE589
:1008E000F1E080819181969587959695879596956B
:1008F00087958093F30080818295880F807E809316
:10090000F2001092F1001092F0008281893019F00B
:1009100081110DC033C0E0E6F1E028E631E0AAEF36
:10092000B0E081918C93E217F307D9F727C080E0FC
:10093000CDE5D1E0AAEFB0E0E82FF0E0E35AFE4FBA
:1009400093819C938F5F9A818917B0F317C0EDE56F
:10095000F1E08081918196958795969587959695FA
:1009600087958093F30080818295880F807E8093A5
:10097000F2001092F10084E08093F00080915F011A
:10098000805C8093EF0081E001C080E0DF91CF9137
:1009900008958F3008F06DC0E82FF0E0EE0FFF1FD4
:1009A000E456FD4F31832083982F9295907F90934A
:1009B000ED00232BD9F41092EE001092EF0021E00D
:1009C00030E0A90102C0440F551F8A95E2F7CA0121
:1009D000EEEDF0E02081809582238083EFEDF0E062
:1009E000808190958923808380E008959091EF0025
:1009F000907C09F040C01092EE00EFEEF0E0108223
:100A00001092EC009B0136952795369527953695E3
:100A100027952093F3006295660F607E6093F20045
:100A20009A013695279536952795369527952093E3
:100A3000F7004295440F407E4093F6001092F50077
:100A40001092F40090E8908321E030E0A90102C008
:100A5000440F551F8A95E2F7CA01EEEDF0E02081C0
:100A6000822B8083EFEDF0E08081892B808380E012
:100A7000089581E0089581E008958F3008F049C01D
:100A8000E82FF0E0EE0FFF1FE456FD4F3183208387
:100A9000982F9295907F9093ED00232BD9F410928C
:100AA000EE001092EF0021E030E0A90102C0440FF7
:100AB000551F8A95E2F7CA01EEEDF0E0208180959E
:100AC00082238083EFEDF0E08081909589238083FD
:100AD00080E008959091EF00907CE9F41092EE0090
:100AE0001092EF001092EC0021E030E0A90102C06A
:100AF000440F551F8A95E2F7CA01EEEDF0E0208120
:100B0000822B8083EFEDF0E08081892B808381E070
:100B1000089581E0089580E00895CF93DF9382E007
:100B20008093E2008CE08093E30087E38093E4000D
:100B300080E0CDEED0E0AEEEB0E0EFEEF0E0982F4A
:100B40009295907F98831C9210828F5F8F30B9F7B7
:100B5000E8EDF0E080818260808380EB8093DB00B1
:100B6000DF91CF910895442369F0FC01EE0FFF1F40
:100B7000ED51FB4F71836083FC01ED5CF94F21E087
:100B800020830895880F991FE091E104F091E20419
:100B9000E80FF91F71836083FC01E35EF94F21E0E8
:100BA00030E0318320830895662341F0880F991F38
:100BB000FC01ED51FB4F808191810895880F991FB1
:100BC000E091E104F091E204E80FF91F8081918146
:100BD0000895FB01EE0FFF1FE80FF91F808191813F
:100BE000892B21F01182108281E0089580E0089520
:100BF000FC01EC5AFF4F20813181253231058CF503
:100C000034970190F081E02DDF01AA0FBB1FA80FE0
:100C1000B91F6D937C93BF016F5F7F4F6832710581
:100C2000D0F4660F771FDC01A60FB71F4D935C93BE
:100C30003296E832F10510F0E0E0F0E0DC01A05B74
:100C4000BF4FED93FC93FC01EC5AFF4F2E5F3F4FDB
:100C5000318320830895FC0151834083E1E0F0E07B
:100C6000EDCF08951F93CF93DF93EC01809179012D
:100C700090917A01019709F073C08A81885082307F
:100C800008F046C06B8170E0762F66278C81680F74
:100C9000711D80913106909132066817790780F4B2
:100CA0004D8150E0542F44278E81480F511D87EC11
:100CB00095E09EDF81E090E090937601809375014E
:100CC0006F8170E0762F66278885680F711D80918F
:100CD0003106909132066817790780F4498550E013
:100CE000542F44278A85480F511D87EC95E080DFFB
:100CF00081E090E09093760180937501488159815D
:100D00004F71552760E070E087EC95E071DF98C087
:100D10006B8170E0762F66278C81680F711D809142
:100D20003106909132066817790780F44D8150E0C2
:100D3000542F44278E81480F511D87EC95E058DFD2
:100D400081E090E09093760180937501488159810C
:100D50004F71552760E070E087EC95E049DF70C087
:100D600068817981CB010024880F991F001C880FAE
:100D7000991F001C892F902D182F11706F717727E4
:100D8000412F80E090E0EFDE8A8188508230D8F5F4
:100D90008B8190E0982F88272C81820F911D2091C4
:100DA0003106309132068217930778F46D8170E036
:100DB000762F66272E81620F711D412FD4DE81E0D0
:100DC00090E090937601809375018F8190E0982F49
:100DD00088272885820F911D209131063091320697
:100DE0008217930768F5698570E0762F66272A8554
:100DF000620F711D412FB7DE81E090E09093760184
:100E0000809375011DC08B8190E0982F88272C81DD
:100E1000820F911D2091310630913206821793077F
:100E200078F46D8170E0762F66272E81620F711D38
:100E3000412F99DE81E090E09093760180937501D7
:100E4000DF91CF911F910895AB01BC018BE894E035
:100E5000CFCE08950F931F93CF93DF93FC01E854F7
:100E6000FF4F0190F081E02DE735F1050CF055C002
:100E7000DC01AC54BF4F0D90BC91A02DED01CC0F07
:100E8000DD1FC80FD91F79836883BD016F5F7F4F56
:100E90006A35710588F5EC01CC54DF4F798368839E
:100EA00024968F010F5F1F4F19830883660F771FEA
:100EB000EC01C60FD71F59834883AD014E5F5F4FCA
:100EC0004A35510520F5440F551FEC01C40FD51FBD
:100ED000398328831396AA35B10510F0A0E0B0E05D
:100EE000EC01CC54DF4FB983A883DC01A854BF4F79
:100EF0003396ED93FC9311C0DC0111965C934E93F5
:100F000013963C932E931297A2E0B0E0E9CFDC0158
:100F10002D933C93A1E0B0E0E3CFDF91CF911F91FF
:100F20000F910895FC01EC5AFF4F40815181141636
:100F30001506E4F4329720813181F901EE0FFF1F8D
:100F4000E80FF91F608171812F5F3F4F2832310513
:100F500010F020E030E0FC01EE5AFF4F3183208397
:100F60003296415051095183408302C060E070E0E5
:100F7000CB010895AF92BF92CF92DF92EF92FF9292
:100F80000F931F93CF93DF936C01A0907203B090E7
:100F90007303E090DF04F090E004F594E7941E14EE
:100FA0001F049CF4C0E0D0E08BE894E0BBDF8C0130
:100FB0008BE894E0B7DF9C01A801B6018AEB92E0D0
:100FC00049DF2196EC16FD0679F782E0A816B104F8
:100FD00010F48DE065DCDF91CF911F910F91FF90B0
:100FE000EF90DF90CF90BF90AF900895FC01E85450
:100FF000FF4F4081518114161506E4F43297208189
:101000003181F901EE0FFF1FE80FF91F6081718137
:101010002F5F3F4F2A35310510F020E030E0FC0112
:10102000EA54FF4F31832083329641505109518356
:10103000408302C060E070E0CB010895FC01E854F9
:10104000FF4F20813181121613065CF43297019014
:10105000F081E02DEE0FFF1FE80FF91F80819181D5
:10106000089580E090E00895FC01E854FF4F11825C
:101070001082349711821082329611821082672B6F
:1010800029F024EBFC0111922A95E9F70895CF93FA
:101090009093E2048093E10440938A0470933206B3
:1010A0006093310680E4489FB001112422E336E0CA
:1010B00040EE57E085E06DDCC82F22E336E040EEDD
:1010C00057E060EC77E086E064DC90E08C0F911DE7
:1010D000892B09F0989521E938E04FEF57E06FEF41
:1010E00077E08DE0CADC87E791E00E94381110922A
:1010F000E0041092DF041092DC041092DB041092E2
:10110000DE041092DD0460E070E08AEB92E0ACDF78
:10111000CF91089544E066E470E086E794E0B7CFAD
:1011200008950F931F93CF93DF9320917203309113
:1011300073032115310509F4A5C0EC0127303105F1
:1011400008F43CC08AEB92E051DF8C0100249695B4
:1011500087950794969587950794982F802D0496E8
:10116000998388838AEB92E041DF9B838C838AEBAF
:1011700092E03CDF9D838E838AEB92E05FDF08176D
:101180001907C9F48AEB92E031DF8AEB92E02EDF97
:101190009F8388878AEB92E029DF99878A878AEB89
:1011A00092E04CDF0817190719F488E08A8370C0B1
:1011B00089E08A836DC084E08A836AC02630310565
:1011C00099F58AEB92E012DF8C01002496958795C1
:1011D0000794969587950794982F802D0496998368
:1011E00088838AEB92E002DF9B838C838AEB92E018
:1011F000FDDE9D838E838AEB92E020DF08171907BE
:1012000081F48AEB92E0F2DE8AEB92E0EFDE9F83DC
:1012100088878AEB92E0EADE99878A8789E08A8369
:1012200037C084E08A8334C023303105E1F48AEB8F
:1012300092E0DCDE00249695879507949695879535
:101240000794982F802D04969983888384E08A835D
:101250008AEB92E0CBDE9B838C838AEB92E0C6DE46
:101260009D838E8315C080917301909174010196C6
:10127000909374018093730161E070E08AEB92E0D7
:10128000F3DE06C021E030E0FC01318320831282CE
:10129000DF91CF911F910F9108950F931F930AE152
:1012A00012E022E132E044EF51E064E08CE29BE0A6
:1012B00038D21F910F9108951092890110928B01DD
:1012C00010928A0140E050E068E08CE29BE0B1D2ED
:1012D00061E08CE29BE0C3D268E070E08DE196E0D3
:1012E00078CC0895CF9368E08CE29BE04DD2C82F74
:1012F000882369F068E08CE29BE039D2682F8CE2A9
:101300009BE035D2892B11F4D7DF01C0C0E08C2FD0
:10131000CF910895609187017091880181E090E0FC
:1013200093DD609185017091860182E090E08CDD13
:10133000609181017091820183E090E085DD609190
:1013400083017091840184E090E07EDD60917F01F3
:101350007091800185E090E077DD86E090E00ACE34
:10136000089562E08CE29BE002D290938801809322
:10137000870161E08CE29BE0FAD190938601809333
:10138000850163E08CE29BE0F2D19093820180932F
:10139000810164E08CE29BE0EAD190938401809328
:1013A000830165E08CE29BE0E2D190938001809321
:1013B0007F010895AF92BF92CF92DF92EF92FF929A
:1013C0000F931F938CE29BE0E5D1892B09F4B4C005
:1013D0008EE091E00E94DA12C4DF84DF80E090E0CA
:1013E00001D7882309F461C08EE191E00E94DA12EE
:1013F0008FE39FE10197F1F700C0000080917D012C
:1014000090917E01892B41F12DD721E030E0892B8D
:1014100011F020E030E080917D0190917E018223E7
:101420009323892BC9F08AE896E079D7882309F4B9
:101430004AC080917B0190917C019C012F5F3F4FBE
:1014400030937C0120937B01069708F43CC01092F6
:101450007E0110927D0137C068E08CE29BE094D160
:10146000882379F080918A0190918B01892B49F42E
:1014700068E08CE29BE07BD190937E0180937D01BC
:1014800022C068E08CE29BE07FD181111CC080917A
:101490008A0190918B01892BB1F440E050E068E023
:1014A0008CE29BE0C6D136DF0EC08CE291E00E9458
:1014B000DA1268E08CE29BE067D140E050E068E03F
:1014C0008CE29BE0B6D183EF9BE0FED60F2EF8EEC8
:1014D000AF2EF02D0F2EF3E0BF2EF02DC12CD12C0E
:1014E000E12CF12C00E010E0C6D7422F532F61E031
:1014F0008CE29BE09ED183EF9BE0E6D6BCD79F9326
:101500008F937F936F935F934F933F932F938BE3CF
:1015100091E09F938F930E94C71261E08CE29BE061
:101520009ED18FE79AE0B6D68DB79EB70A960FB6D2
:10153000F8949EBF0FBE8DBF8FE79AE0F0D6882348
:1015400061F086E491E09F938F930E94C71283EF2E
:101550009BE0A0D6B1DE0F900F901F910F91FF90EE
:10156000EF90DF90CF90BF90AF9008950F931F93AF
:1015700004EF11E020E030E040E050E060E070E097
:101580008AE896E079D620E030E040E050E060E084
:1015900070E08AE796E070D605E010E020E030E0E9
:1015A00040E050E060E070E08AE996E065D620E037
:1015B00030E040E050E060E070E08BED99E05CD618
:1015C00000ED17E020E030E040E050E060E070E047
:1015D0008FE79AE051D602E310E020E030E040E0EF
:1015E00050E060E070E08FED9BE046D620E030E018
:1015F00040E050E060E070E086E19BE03DD61F9166
:101600000F910895FC0115AE14AE17AE16AEE05C56
:10161000FF4F118210820895FC0184AD95AD0895AD
:1016200021E0FC0184AD95ADCC9709F020E0822F3C
:10163000089521E0FC0184AD95AD892B09F020E0EF
:10164000822F0895DC01DC962D913C91DD972C339F
:101650003105D9F0A05CBF4F4D915C911197FA0113
:101660003196ED93FC93DC01A40FB51F6C932F5FB3
:101670003F4FDC01DD963C932E93DC97FC9729F4D9
:10168000FC01E05CFF4F118210820895FC0184ADE3
:1016900095AD019795AF84AF26AD37ADDF01A20FB1
:1016A000B31F8C912F5F3F4F2C33310519F037AFAB
:1016B00026AF089517AE16AE0895FC0126AD37ADDE
:1016C000620F731F6C33710510F06C537109FC01CC
:1016D000E60FF71F80810895FC0115AE14AE17AE1A
:1016E00016AEE05CFF4F1182108208956623B9F0B8
:1016F000FC01615070E06F5F7F4F680F791F80E0E1
:101700004CE8219198E0382F3227869530FD8427C8
:1017100026959150C1F7E617F70799F7089580E0ED
:1017200008950F931F93CF93DF93EC01FC01619316
:101730004996DC01119211921D92E817F907D1F731
:10174000FE01E755FF4F518340833296318320835A
:10175000329611830083CE01859654DFCE018959DC
:101760009F4F50DFDF91CF911F910F91089570E04F
:10177000FC01E60FF71F118E660F771FFC01E60FC5
:10178000F71F818192810895FC01E60FF11D818D83
:10179000118E0895CF92DF92EF92FF920F931F93D5
:1017A000CF93DF937C01EC01CB59DF4F6C0181E6D5
:1017B000C80ED11C87010B5D1F4F1DC00E94120275
:1017C0008093690228813981F701E20FF31F85A315
:1017D0002F5F3F4F2C33310519F03983288302C026
:1017E00019821882F601808191818D33910518F458
:1017F0000196918380830E941A02811104C0C8015E
:101800000FDF8823D9F2A701475E5F4FB7016F5FF3
:101810007F4FF70100812CE030E0C7018596C5D2EB
:10182000DF91CF911F910F91FF90EF90DF90CF90BC
:1018300008950F931F93CF93DF93042F152FEC017F
:10184000C959DF4FCE01FEDE602FCE01FBDE612FD6
:10185000CE01F8DEDF91CF911F910F9108956F9225
:101860007F928F929F92AF92BF92CF92DF92EF9230
:10187000FF920F931F93CF93DF93CDB7DEB7EC9713
:101880000FB6F894DEBF0FBECDBF4C01D62E7C0143
:1018900087E6E80EF11CC701BFDE3C01892B09F485
:1018A0003EC0840107551F4FD801ED91FC9186E0A1
:1018B0000995D801ED91FC9185E80995D801ED9144
:1018C000FC918D2D0995D801ED91FC91D4018C915D
:1018D0000995D801ED91FC91862D09958E010F5F38
:1018E0001F4F5801A60CB71C6401B9EACB0ED11CDE
:1018F000C701CCDEF80181938F01D601ED91FC91F7
:1019000009950A151B05A1F7F401E755FF4F008162
:101910001181662DCE010196E9DEF8010995EC965C
:101920000FB6F894DEBF0FBECDBFDF91CF911F91F0
:101930000F91FF90EF90DF90CF90BF90AF909F906E
:101940008F907F906F9008950F9390939B01809359
:101950009A01709399016093980150939701409375
:101960009601309395012093940100939301109276
:101970009201109291011092900181E090E0909379
:101980008F0180938E010F91089580919A0190911B
:101990009B0142DE60919001709191016817790777
:1019A00038F082E090E090938F0180938E0108954B
:1019B00080919A0190919B0180DE863039F083E01E
:1019C00090E090938F0180938E0108958091900113
:1019D00090919101019690939101809390010895C7
:1019E00080919A0190919B0117DE60919001709116
:1019F00091016817790738F082E090E090938F01A9
:101A000080938E01089580919A0190919B0155DEFB
:101A1000853839F084E090E090938F0180938E01B7
:101A20000895809190019091910101969093910178
:101A300080939001089580919A0190919B01ECDD33
:101A400060919001709191016817790738F082E0F8
:101A500090E090938F0180938E01089580919A0178
:101A600090919B012ADE80919001909191010196C5
:101A70009093910180939001089580919A019091A3
:101A80009B01CADD609190017091910168177907FF
:101A900038F082E090E090938F0180938E0108955A
:101AA00080919A0190919B0108DE90919301891792
:101AB00039F085E090E090938F0180938E01089536
:101AC0008091900190919101019690939101809362
:101AD0009001089580919A0190919B019DDD609104
:101AE0009001709191016817790738F082E090E0D9
:101AF00090938F0180938E01089580919A01909127
:101B00009B01DBDD809392018D3350F49BEA899F2A
:101B1000912D11249695292F220F920F891739F0B4
:101B200086E090E090938F0180938E0108958091DC
:101B30009001909191010196909391018093900171
:101B40000895CF93DF93C0919001D0919101219797
:101B500080919201C80FD11D80919A0190919B01B3
:101B60005BDDC817D90738F082E090E090938F01D1
:101B700080938E010CC020919201809190019091F0
:101B80009101820F911D9093910180939001DF91BB
:101B9000CF910895EF92FF920F931F93CF93DF930E
:101BA000CDB7DEB7EC970FB6F894DEBF0FBECDBF52
:101BB00080919A0190919B012FDD209190013091AD
:101BC00091012817390728F460919201611108C02A
:101BD00020C082E090E090938F0180938E0138C006
:101BE000CE0101967C0100E010E0B8016B5F7F4FF1
:101BF00080919A0190919B0160DDF70181937F01B3
:101C00000F5F1F4F60919201862F90E00817190710
:101C100064F3CE0101966ADD182F609190017091F6
:101C2000910180919A0190919B0147DD181739F03D
:101C300087E090E090938F0180938E0109C080919E
:101C40009001909191010196909391018093900160
:101C5000EC960FB6F894DEBF0FBECDBFDF91CF91EB
:101C60001F910F91FF90EF900895CF93DF93EC01B8
:101C70002197181619063CF480919A0190919B01C6
:101C800005DD2197C8F7DF91CF9108957EDE809121
:101C90008E0190918F01019721F5A2DE80918E0136
:101CA00090918F010197E9F4E8DE80918E01909187
:101CB0008F010197B1F4BFDE80918E0190918F0169
:101CC000019779F407DF80918E0190918F01019740
:101CD00041F437DF80918E0190918F01019709F4D3
:101CE00059CF0895DF92EF92FF920F931F93CF93F6
:101CF000DF930091920110E00B5F1F4F063011053A
:101D00000CF440C0C5E0D0E0DD24D394BE01809146
:101D10009A0190919B01D1DCF82EBE016F5F7F4F3D
:101D200080919A0190919B01C8DCE82EBE016E5F04
:101D30007F4F80919A0190919B01BFDC4F2D50E025
:101D4000209194013091950142175307BCF49A01F8
:101D5000440F551FE0919801F0919901E40FF51F90
:101D60004E2D50E0BA01782B7183608380919601EB
:101D700090919701FC01E20FF31FD0822396C017C8
:101D8000D10724F2C0919201D0E0259680919A016A
:101D900090919B017BDC2197C8F7DF91CF911F9138
:101DA0000F91FF90EF90DF9008958F929F92AF92E6
:101DB000BF92CF92DF92EF92FF920F93CF934C019D
:101DC0005B016A017901C02F10928D0110928C0184
:101DD0000C2F9701A601B501C401B6DD80919A01CF
:101DE00090919B0126DC882329F080918C019091B1
:101DF0008D0131C04BDF80918E0190918F01813038
:101E0000910519F0029771F020C06CDF88E01AD1BB
:101E100080918C0190918D01019690938D0180931A
:101E20008C01D6CF80919A0190919B01F9DB882398
:101E300029F080919A0190919B014EDC89E002D1BA
:101E400080918C0190918D0106C081E090E00DDFC2
:101E50008AE0F8D0BDCFCF910F91FF90EF90DF9047
:101E6000CF90BF90AF909F908F900895CF9360E0F8
:101E700072EC81E090E00E94580160E072EC81E039
:101E800090E00E94E000A7D271DB8FE782B988EF73
:101E900081BB9FEF91B980BB59D07894C1E061E0DC
:101EA0008C2F6BD02FEF80E792E021508040904044
:101EB000E1F700C00000CF5FCD3089F72FEF83ED51
:101EC00090E3215080409040E1F700C00000C1E065
:101ED00060E08C2F52D02FEF80E792E021508040BD
:101EE0009040E1F700C00000CF5FCD3089F70E943D
:101EF0008D0510D9CF910895CF93DF93EDE2FCE0EB
:101F0000818360834283C0E0D0E045E0BE018DE282
:101F10009CE0CAD046E0BE018DE29CE0C5D021968F
:101F2000C930D10591F7C1E0D0E043E0BE018DE2B8
:101F30009CE0BAD044E0BE018DE29CE0B5D0219691
:101F4000C931D10591F7DF91CF9108950F931F9378
:101F500008EE13E020E030E040E050E060E070E0A8
:101F600085E09CE089D140E050E060E070E080E0F6
:101F700090E0C2DF1F910F910895962F61111AC052
:101F8000482F50E0FA013197EC30F10588F5E65B17
:101F9000FF4F66C288E040C080E434C081E03CC0AE
:101FA00084E03AC080E138C080E436C080E22AC0D4
:101FB00088E028C0482F50E0FA013197EC30F10555
:101FC000B8F4EA5AFF4F4CC287EF26C08FEB1AC015
:101FD0008DEF22C08EEF20C08BEF1EC08FEE1CC095
:101FE0008FEB1AC08FE70EC08FED0CC087EF0AC0D1
:101FF0008A3028F4833078F4813018F102C08D30B3
:1020000000F580E02FB1911103C0822B81BB0895B0
:10201000822381BB089580E020B1911103C0822BFF
:1020200082B90895822382B9089580E1EBCF80E8D8
:10203000E9CF8FEEE7CF80E2EFCF82E0EDCF8FEDFB
:10204000EBCF0895482F50E0FA013197EC30F105BD
:1020500098F4EE59FF4F04C288E01BC080E416C01C
:1020600081E017C084E015C080E113C080E411C096
:1020700080E20CC088E00AC08A3028F4833040F443
:10208000813088F002C08D3070F480E08FB90895FF
:1020900080E080B9089580E1F9CF80E8F7CF80E251
:1020A000F8CF82E0F6CF08951F93CF93DF9321E01E
:1020B00030E002C0220F331F4A95E2F7FB01EE0F1A
:1020C000FF1FE60FF71FAC014D5F5F4F5093330CBE
:1020D0004093320C9093350C8093340C37B1322BF3
:1020E00037B938B1722F7095732358B1522B1FB77F
:1020F000F8949F0121503109EF2B21F1A091320C6E
:10210000B091330CD091340CC091350CA817B9079D
:1021100019F4ED2FFC2F01C0FC01CF010196408185
:1021200068E058B9000000C047FF78B9440F0000CC
:1021300000C000C000C078B900C06A9591F7215076
:10214000310920F71FBF8FEA94E00197F1F700C033
:102150000000DF91CF911F91089588DE9ED804E69C
:1021600010E020E030E040E050E060E070E08FED13
:102170009BE082D040E050E060E070E084E690E0D8
:10218000BBDE18D9FECFEF92FF920F931F93CF9330
:10219000DF9307E010E0E12CF12CC1E0D0E0B801C2
:1021A00083E396E00E94E905882371F061E0C801AD
:1021B0000E94D405817099270C2E02C0880F991FA8
:1021C0000A94E2F7E82AF92A2196095F1F4FCC30DA
:1021D000D10529F7C701DF91CF911F910F91FF9092
:1021E000EF900895CF93DF93EC01D370CCDF9E0185
:1021F0002823392381E02C173D0709F080E0DF9187
:10220000CF9108950F931F93CF93DF93C8E0D0E051
:1022100000E010E061E0CE010E94D405892B31F08E
:1022200061E0CE010E94D405082B192B2796C535F5
:10223000D10581F780919C0190919D0108171907A4
:1022400061F080919E0190919F0190939D018093F8
:102250009C0110939F0100939E01DF91CF911F91EC
:102260000F910895CFDF80919E0190919F01089575
:10227000FC011182108208950F931F93FC010083CB
:1022800011832283338344835583668377831F912D
:102290000F910895FC017091A0016091A1015091EE
:1022A000A2014091A3013091A4012091A501909138
:1022B000A6018091A7017087618752874387348781
:1022C0002587968787870895AF92BF92CF92DF9236
:1022D000EF92FF920F931F93FC012091A001309188
:1022E000A1014091A2015091A3016091A4017091BC
:1022F000A5018091A6019091A701A084B184C28418
:10230000D384E484F5840685178526D11F910F9127
:10231000FF90EF90DF90CF90BF90AF9008956F92B5
:102320007F928F929F92AF92BF92CF92DF92EF9265
:10233000FF920F931F93CF93DF93FC016090A00156
:102340007090A1018090A2019090A301D091A4016E
:10235000C091A501B091A601A091A701208531856A
:10236000428553856485758586859785A080B18073
:10237000C280D380E480F58006811781D8D0A22E58
:10238000B32EC42ED52EE62EF72E082F192F262D6C
:10239000372D482D592D6D2F7C2F8B2F9A2FE5D05F
:1023A00050F06086718682869386D487C587B6870B
:1023B000A78781E001C080E0DF91CF911F910F914D
:1023C000FF90EF90DF90CF90BF90AF909F908F9055
:1023D0007F906F90089585E084BD81E080936E00CA
:1023E00008951F920F920FB60F9211242F933F93CF
:1023F0004F935F936F937F938F939F93AF932091AE
:10240000A0013091A1014091A2015091A3016091DE
:10241000A4017091A5018091A6019091A701A0E16E
:102420008FD02093A0013093A1014093A20150933B
:10243000A3016093A4017093A5018093A6019093DA
:10244000A70115BAAF919F918F917F916F915F9185
:102450004F913F912F910F900FBE0F901F901895A5
:10246000EE0FFF1F0024001C0BBE0790F691E02D1D
:102470000994689401C0E8948F929F92CF93DF9360
:1024800005D0DF91CF919F908F9008958824992453
:10249000F401E401B0E49F93AA279A158B049C04ED
:1024A000ED05FE05CF05D007A10798F4AD2FDC2F71
:1024B000CF2FFE2FE92D982C892E982F872F762F3E
:1024C000652F542F432F322F2227B85031F7BF9159
:1024D00027C01B2EBF91BB27220F331F441F551F40
:1024E000661F771F881F991F881C991CEE1FFF1FEE
:1024F000CC1FDD1FAA1FBB1F8A149B04EC05FD0522
:10250000CE05DF05A007B10748F08A189B08EC0943
:10251000FD09CE09DF09A00BB10B21601A94E1F689
:102520002EF49401AF01BE01CD01000C08952A0DD7
:102530003B1D4C1D5D1D6E1D7F1D801F911F08954D
:102540000024A7FD00942A0F301D401D501D601D62
:10255000701D801D901D08952A193B094C095D09C5
:102560006E097F09800B910B08952A153B054C05D8
:102570005D056E057F05800791070895FB01DC016D
:1025800002C001900D9241505040D8F70895CF936A
:10259000DF93CDB7DEB7AE014B5F5F4FFA016191BC
:1025A0007191AF018091380C9091390C33D0DF914B
:1025B000CF9108950F931F93CF93DF93E091380C41
:1025C000F091390C238121FF1BC08C01D0E0C0E0C9
:1025D000F80181918F016091380C7091390CDB0109
:1025E0001896ED91FC911997882331F00995892B64
:1025F00079F3DFEFCFEFECCF8AE00995892B19F063
:102600008FEF9FEF02C08D2F9C2FDF91CF911F91F5
:102610000F9108952F923F924F925F926F927F9207
:102620008F929F92AF92BF92CF92DF92EF92FF92E2
:102630000F931F93CF93DF93CDB7DEB72B970FB6D2
:10264000F894DEBF0FBECDBF6C017B018A01FC0197
:1026500017821682838181FFBFC1CE0101963C01A2
:10266000F6019381F70193FD859193FF81917F019D
:10267000882309F4ADC1853239F493FD859193FF28
:1026800081917F01853221F4B60190E0D6D1E8CF67
:10269000912C212C312CFFE1F315D8F08B3279F0FD
:1026A00038F4803279F08332A1F4232D20611DC0EB
:1026B0008D3261F0803369F4232D216016C0832DA3
:1026C0008260382EE32DE4603E2E2AC0F32DF860A0
:1026D0001DC037FC2DC020ED280F2A3040F08E326F
:1026E000B9F436FC75C1232D2064322E19C036FE94
:1026F00006C08AE0989E200D1124922E11C0EAE0B7
:102700002E9E200D1124222EF32DF0623F2E08C0A4
:102710008C3621F4832D8068382E02C0883641F42F
:10272000F70193FD859193FF81917F018111B3CFD3
:10273000982F9F7D9554933028F40C5F1F4F9FE393
:1027400099830DC0833631F0833771F0833509F0FA
:1027500055C020C0F801808189830E5F1F4F8824F7
:102760008394912C530112C02801F2E04F0E511CAA
:10277000F801A080B18036FE03C0692D70E002C070
:102780006FEF7FEFC5014ED14C018201F32DFF7732
:102790003F2E15C0280122E0420E511CF801A080F6
:1027A000B18036FE03C0692D70E002C06FEF7FEF8D
:1027B000C5012DD14C01F32DF0683F2E820133FC71
:1027C00019C0822D90E088169906A0F4B60180E227
:1027D00090E033D12A94F5CFF50137FC859137FE8F
:1027E00081915F01B60190E028D121102A9421E067
:1027F000821A91088114910479F7E1C0843611F0AE
:10280000893639F5F80137FE07C060817181828110
:1028100093810C5F1F4F08C060817181072E000CEF
:10282000880B990B0E5F1F4FF32DFF763F2E97FFFE
:1028300009C090958095709561957F4F8F4F9F4F00
:10284000F0683F2E2AE030E0A30133D1882E8618AD
:1028500044C0853731F4232D2F7EB22E2AE030E09C
:1028600025C0932D997FB92E8F36C1F018F4883585
:1028700079F0AEC0803719F0883721F0A9C0E92F70
:10288000E061BE2EB4FE0DC0FB2DF460BF2E09C06A
:1028900034FE0AC0292F2660B22E06C028E030E0A0
:1028A00005C020E130E002C020E132E0F801B7FECF
:1028B00007C060817181828193810C5F1F4F06C0C8
:1028C0006081718180E090E00E5F1F4FA301F1D025
:1028D000882E8618FB2DFF773F2E36FE0DC0232D48
:1028E0002E7FA22E891458F434FE0BC032FC09C08E
:1028F000832D8E7EA82E05C0B82CA32C03C0B82C27
:1029000001C0B92CA4FE0FC0FE01E80DF11D8081AD
:10291000803321F49A2D997EA92E09C0A2FE06C00B
:10292000B394B39404C08A2D867809F0B394A3FCC1
:1029300010C0A0FE06C0B21480F4280C922C9B1884
:102940000DC0B21458F4B60180E290E076D0B39492
:10295000F8CFB21418F42B1802C0982C212CA4FE26
:102960000FC0B60180E390E068D0A2FE16C0A1FCC3
:1029700003C088E790E002C088E590E0B6010CC093
:102980008A2D867851F0A1FE02C08BE201C080E260
:10299000A7FC8DE2B60190E050D0891430F4B60166
:1029A00080E390E04AD09A94F8CF8A94F301E80D3E
:1029B000F11D8081B60190E040D08110F6CF222039
:1029C00009F44ECEB60180E290E037D02A94F7CFDA
:1029D000F6018681978102C08FEF9FEF2B960FB68D
:1029E000F894DEBF0FBECDBFDF91CF911F910F9145
:1029F000FF90EF90DF90CF90BF90AF909F908F901F
:102A00007F906F905F904F903F902F900895FC01C2
:102A10000590615070400110D8F7809590958E0F09
:102A20009F1F0895FC016150704001900110D8F77C
:102A3000809590958E0F9F1F08950F931F93CF93AE
:102A4000DF93FB01238121FD03C08FEF9FEF2CC09B
:102A500022FF16C0468157812481358142175307D2
:102A600044F4A081B1819D012F5F3F4F31832083CA
:102A70008C93268137812F5F3F4F3783268314C085
:102A80008B01EC01FB010084F185E02D0995892B78
:102A9000E1F6D80116968D919C911797019617969D
:102AA0009C938E931697CE01DF91CF911F910F913A
:102AB0000895FA01AA27283051F1203181F1E894D4
:102AC0006F936E7F6E5F7F4F8F4F9F4FAF4FB1E021
:102AD0003ED0B4E03CD0670F781F891F9A1FA11D1C
:102AE000680F791F8A1F911DA11D6A0F711D811D1D
:102AF000911DA11D20D009F468943F912AE0269FE2
:102B000011243019305D3193DEF6CF010895462F40
:102B10004770405D4193B3E00FD0C9F7F6CF462F21
:102B20004F70405D4A3318F0495D31FD405241938A
:102B300002D0A9F7EACFB4E0A69597958795779547
:102B40006795BA95C9F700976105710508959B01CE
:102B5000AC010A2E06945795479537952795BA9557
:102B6000C9F7620F731F841F951FA01D0895F89465
:022B7000FFCF95
:102B72000000000200000000E801000000005265B1
:102B820063656976656420446174612E2E00537911
:102B92007374656D2028476F6F64290053797374CD
:102BA200656D20284572726F722900557054696DE7
:102BB200653A202564004E6F7420436F6E6E656324
:0C2BC200746564204572726F720D000093
:00000001FF
