:1000000061C000007EC000007CC000007AC000001B
:1000100078C0000076C0000074C0000072C000000C
:1000200070C000006EC000006CC000006AC000001C
:1000300068C0000066C0000064C0000062C000002C
:1000400060C000000C946E0ED1C200005AC00000C7
:1000500058C000009CC200002FC2000052C0000027
:1000600050C000004EC000004CC000004AC000005C
:1000700048C0000046C0000044C0000042C000006C
:1000800057C20000D5C100003CC000003AC00000CB
:1000900038C00000D70C8E0C900C920C940C960C6F
:1000A000DD0C8C0CDF0CD90C980C9A0CDB0CA80C1A
:1000B000AC0CAE0CB00CB20CE10CA60CAA0CB40C3F
:1000C000B60CB80C11241FBECFEFD0E1DEBFCDBF00
:1000D00011E0A0E0B1E0ECE3FEE100E00BBF02C004
:1000E00007900D92AC32B107D9F72BE0ACE2B1E04A
:1000F00001C01D92AC3FB207E1F70E943D0D0C9488
:100100001C0F7ECFCF93DF93EC014C855D858881FA
:1001100099810E94E30E288139818C859D85820F0B
:10012000931F998388832E813F818217930720F044
:100130008C819D81998388838A859B8528853985D3
:10014000821793071CF401969B878A87DF91CF91D2
:100150000895CF93DF93FB011082FC012285338544
:10016000232BF9F09B01EC01628173814485558555
:10017000C9010E94E30E2A813B818C859D85820FF7
:10018000931F9B838A832E813F818217930721F4DB
:100190008C819D819B838A838A859B8501979B8720
:1001A0008A87DF91CF910895E0E3F2E047EF51E0D5
:1001B0005583448329E232E03783268322E330E00B
:1001C000318720871386128621E030E03587248727
:1001D0005183408353834283ECE4F2E04AE252E0ED
:1001E00055834483AFE2B2E0B783A683A5E0B0E0D5
:1001F000B187A08713861286358724875183408371
:1002000053834283611526E972078105910501F147
:1002100030F461157B448105910509F127C0611512
:1002200021EE72078105910561F06115724C8140E4
:100230009105E1F480E190E09093C5008093C400C3
:100240001BC082E290E09093C5008093C40014C06C
:1002500083E390E09093C5008093C4000DC087E6CF
:1002600090E09093C5008093C40006C08FEC90E0AE
:100270009093C5008093C40082E08093C0008EE01C
:100280008093C20088E98093C10080E091E0909360
:10029000F90B8093F80B0895EEE3F2E04AE751E0A2
:1002A000558344832EED31E03783268324E630E006
:1002B000318720871386128621E030E03587248736
:1002C0005183408353834283EAE6F1E04EED51E0EF
:1002D00055834483A7EFB1E0B783A683A9E1B0E0DB
:1002E000B187A08713861286358724875183408380
:1002F00053834283611526E972078105910501F157
:1003000030F461157B448105910509F127C0611521
:1003100021EE72078105910561F06115724C8140F3
:100320009105E1F480E190E09093CD008093CC00C2
:100330001BC082E290E09093CD008093CC0014C06B
:1003400083E390E09093CD008093CC000DC087E6CE
:1003500090E09093CD008093CC0006C08FEC90E0AD
:100360009093CD008093CC0082E08093C80086E01B
:100370008093CA0088E98093C90008950F931F9362
:10038000CF93DF931F92CDB7DEB7898301EC10E0E6
:10039000F80180818F7D8083BE016F5F7F4F80E396
:1003A00092E0B0DEF8018081806280830F90DF915F
:1003B000CF911F910F910895CF93C82F8A3011F4D8
:1003C0008DE0FADF8C2FDADF80E090E0CF910895A6
:1003D0000F931F93CF93DF931F92CDB7DEB789831F
:1003E00009EC10E0F80180818F7D8083BE016F5F92
:1003F0007F4F8AE691E086DEF8018081806280830B
:100400000F90DF91CF911F910F91089569E272E0F3
:100410008EE392E09EDE80912902089581E0209192
:10042000480230914902121613060CF480E0089538
:100430001F920F920FB60F9211240BB60F922F93AB
:100440003F934F935F936F937F938F939F93AF935C
:10045000BF93EF93FF93CF93DF931F92CDB7DEB798
:1004600080917401909175011816190654F4BE011B
:100470006F5F7F4F8AE691E06CDE89818093CE00CA
:1004800005C0E9ECF0E080818F7D80830F90DF91E3
:10049000CF91FF91EF91BF91AF919F918F917F91FC
:1004A0006F915F914F913F912F910F900BBE0F90E5
:1004B0000FBE0F901F9018951F920F920FB60F92BC
:1004C00011240BB60F922F933F934F935F936F932B
:1004D0007F938F939F93AF93BF93EF93FF938091FD
:1004E0003A0290913B021816190654F46CE271E03E
:1004F00080E392E02EDE80912C018093C60005C03F
:10050000E1ECF0E080818F7D8083FF91EF91BF91DE
:10051000AF919F918F917F916F915F914F913F919B
:100520002F910F900BBE0F900FBE0F901F9018953C
:100530001F920F920FB60F9211240BB60F922F93AA
:100540003F934F935F936F937F938F939F93AF935B
:10055000BF93EF93FF938091CE0080932F026FE2C1
:1005600072E08EE392E0CEDDFF91EF91BF91AF910B
:100570009F918F917F916F915F914F913F912F91BB
:100580000F900BBE0F900FBE0F901F9018951F92EB
:100590000F920FB60F9211240BB60F922F933F9329
:1005A0004F935F936F937F938F939F93AF93BF937B
:1005B000EF93FF938091C60080935A026AE572E040
:1005C0008CE492E09FDDFF91EF91BF91AF919F91FD
:1005D0008F917F916F915F914F913F912F910F90EC
:1005E0000BBE0F900FBE0F901F9018951F920F9289
:1005F0000FB60F9211240BB60F922F933F934F9388
:100600005F936F937F938F939F93AF93BF93CF939A
:10061000EF93FF93EDEEF0E0C0818091EC00682F46
:1006200070E0807F8083729562956F7067277F701E
:1006300067278091EE008F7DC1F52091F2008091B7
:10064000F300E8E3F1E022952695277090E0880F0B
:10065000991F880F991F880F991F822B9183808380
:100660008091EF008F70828390E0009759F0EBE368
:10067000F1E0855C9E4FAAEFB0E02C912193E81742
:10068000F907D9F71092EE0080E88093EF00FB01A4
:10069000EE0FFF1FE45AFD4F0190F081E02D88E33B
:1006A00091E00995C093ED00D8C08091EE008F7B5A
:1006B00009F057C0FB01EE0FFF1FE45AFD4F0190F8
:1006C000F081E02D88E391E0099580913A0188233B
:1006D00009F440C0E8E3F1E0808191819695879527
:1006E00096958795969587958093F300808182955E
:1006F000880F807E8093F2001092F1001092F0003B
:100700008281893019F081110DC01CC0EBE3F1E04A
:1007100023E431E0AAEFB0E081918C93E217F30774
:10072000D9F710C080E028E331E0AAEFB0E0E82F6D
:10073000F0E0E85CFE4F93819C938F5FF90192811A
:100740008917A8F31092EE0080913A01805C8093A3
:10075000EF0004C01092EE001092EF00C093ED0085
:100760007CC08091EE0090E08F77892BC1F52091BD
:10077000F2008091F300E8E3F1E0229526952770DE
:1007800090E0880F991F880F991F880F991F822B5F
:10079000918380838091EF008F70828390E0009737
:1007A00059F0EBE3F1E0855C9E4FAAEFB0E02C91AD
:1007B00021938E179F07D9F71092EE0080E880935F
:1007C000EF00FB01EE0FFF1FE45AFD4F0190F08197
:1007D000E02D88E391E00995C093ED003EC0809143
:1007E000EE008F75C1F52091F2008091F300E8E3EF
:1007F000F1E022952695277090E0880F991F880FC9
:10080000991F880F991F822B918380838091EF001D
:100810008F70828390E0009759F0EBE3F1E0855C04
:100820009E4FAAEFB0E02C912193E817F907D9F772
:100830001092EE0080E88093EF00FB01EE0FFF1FA7
:10084000E45AFD4F0190F081E02D88E391E0099595
:10085000C093ED0002C08091EE00FF91EF91CF9127
:10086000BF91AF919F918F917F916F915F914F91C8
:100870003F912F910F900BBE0F900FBE0F901F90C6
:100880001895CF93DF93C82FE82FF0E0EE0FFF1FEE
:10089000E45AFD4F0190F081E02D682F8DE291E048
:1008A0000995C295C07FC093ED0080912F018823E8
:1008B00009F45CC01092EE001092EF008F3FC1F17E
:1008C000EDE2F1E0808191819695879596958795E7
:1008D000969587958093F30080818295880F807E1E
:1008E0008093F2001092F1001092F0008281893022
:1008F00019F081110DC033C0E0E3F1E028E331E0ED
:10090000AAEFB0E081918C93E217F307D9F727C0E3
:1009100080E0CDE2D1E0AAEFB0E0E82FF0E0E35DC7
:10092000FE4F93819C938F5F9A818917B0F317C014
:10093000EDE2F1E080819181969587959695879576
:10094000969587958093F30080818295880F807EAD
:100950008093F2001092F10084E08093F000809187
:100960002F01805C8093EF0081E001C080E0DF9187
:10097000CF9108958F3008F06DC0E82FF0E0EE0FB2
:10098000FF1FE45AFD4F31832083982F9295907F6B
:100990009093ED00232BD9F41092EE001092EF000B
:1009A00021E030E0A90102C0440F551F8A95E2F70B
:1009B000CA01EEEDF0E02081809582238083EFED87
:1009C000F0E0808190958923808380E00895909164
:1009D000EF00907C09F040C01092EE00EFEEF0E0E6
:1009E00010821092EC009B0136952795369527953D
:1009F000369527952093F3006295660F607E60938D
:100A0000F2009A01369527953695279536952795C4
:100A10002093F7004295440F407E4093F6001092D9
:100A2000F5001092F40090E8908321E030E0A901F5
:100A300002C0440F551F8A95E2F7CA01EEEDF0E0BF
:100A40002081822B8083EFEDF0E08081892B8083F1
:100A500080E0089581E0089581E008958F3008F0E6
:100A600049C0E82FF0E0EE0FFF1FE45AFD4F31833D
:100A70002083982F9295907F9093ED00232BD9F4AB
:100A80001092EE001092EF0021E030E0A90102C0C8
:100A9000440F551F8A95E2F7CA01EEEDF0E0208180
:100AA000809582238083EFEDF0E08081909589230B
:100AB000808380E008959091EF00907CE9F410929B
:100AC000EE001092EF001092EC0021E030E0A9015E
:100AD00002C0440F551F8A95E2F7CA01EEEDF0E01F
:100AE0002081822B8083EFEDF0E08081892B808351
:100AF00081E0089581E0089580E00895CF93DF9329
:100B000082E08093E2008CE08093E30087E38093AF
:100B1000E40080E0CDEED0E0AEEEB0E0EFEEF0E04D
:100B2000982F9295907F98831C9210828F5F8F30C0
:100B3000B9F7E8EDF0E080818260808380EB8093FC
:100B4000DB00DF91CF910895442369F0FC01EE0FA3
:100B5000FF1FED55FB4F71836083FC01ED50FA4F91
:100B600021E020830895880F991FE091A104F0915E
:100B7000A204E80FF91F71836083FC01E352FA4F6E
:100B800021E030E0318320830895662341F0880F0F
:100B9000991FFC01ED55FB4F808191810895880FCD
:100BA000991FE091A104F091A204E80FF91F808140
:100BB00091810895FB01EE0FFF1FE80FF91F80815F
:100BC0009181892B21F01182108281E0089580E0CB
:100BD0000895FC01EC5AFF4F208131812532310507
:100BE0008CF534970190F081E02DDF01AA0FBB1F37
:100BF000A80FB91F6D937C93BF016F5F7F4F683261
:100C00007105D0F4660F771FDC01A60FB71F4D9357
:100C10005C933296E832F10510F0E0E0F0E0DC01A0
:100C2000A05BBF4FED93FC93FC01EC5AFF4F2E5F8E
:100C30003F4F318320830895FC0151834083E1E0DD
:100C4000F0E0EDCF08951F93CF93DF93EC018091F7
:100C5000490190914A01019709F073C08A81885037
:100C6000823008F046C06B8170E0762F66278C8159
:100C7000680F711D8091F1059091F2056817790751
:100C800080F44D8150E0542F44278E81480F511D30
:100C900087E895E09EDF81E090E0909346018093A5
:100CA00045016F8170E0762F66278885680F711D7A
:100CB0008091F1059091F2056817790780F44985D4
:100CC00050E0542F44278A85480F511D87E895E04E
:100CD00080DF81E090E09093460180934501488158
:100CE00059814F71552760E070E087E895E071DF2A
:100CF00098C06B8170E0762F66278C81680F711D1C
:100D00008091F1059091F2056817790780F44D8183
:100D100050E0542F44278E81480F511D87E895E0FD
:100D200058DF81E090E0909346018093450148812F
:100D300059814F71552760E070E087E895E049DF01
:100D400070C068817981CB010024880F991F001C35
:100D5000880F991F001C892F902D182F11706F710B
:100D60007727412F80E090E0EFDE8A818850823043
:100D7000D8F58B8190E0982F88272C81820F911DC8
:100D80002091F1053091F2058217930778F46D8177
:100D900070E0762F66272E81620F711D412FD4DE01
:100DA00081E090E090934601809345018F8190E02F
:100DB000982F88272885820F911D2091F105309169
:100DC000F2058217930768F5698570E0762F66272C
:100DD0002A85620F711D412FB7DE81E090E090936C
:100DE0004601809345011DC08B8190E0982F882794
:100DF0002C81820F911D2091F1053091F20582170F
:100E0000930778F46D8170E0762F66272E81620F4C
:100E1000711D412F99DE81E090E09093460180930F
:100E20004501DF91CF911F910895AB01BC018BE487
:100E300094E0CFCE08950F931F93CF93DF93FC01DF
:100E4000E854FF4F0190F081E02DE735F1050CF0FB
:100E500055C0DC01AC54BF4F0D90BC91A02DED01ED
:100E6000CC0FDD1FC80FD91F79836883BD016F5F69
:100E70007F4F6A35710588F5EC01CC54DF4F7983DB
:100E8000688324968F010F5F1F4F19830883660FB5
:100E9000771FEC01C60FD71F59834883AD014E5F02
:100EA0005F4F4A35510520F5440F551FEC01C40F23
:100EB000D51F398328831396AA35B10510F0A0E019
:100EC000B0E0EC01CC54DF4FB983A883DC01A85417
:100ED000BF4F3396ED93FC9311C0DC0111965C93E8
:100EE0004E9313963C932E931297A2E0B0E0E9CF75
:100EF000DC012D933C93A1E0B0E0E3CFDF91CF91F3
:100F00001F910F910895FC01EC5AFF4F40815181D0
:100F100014161506E4F4329720813181F901EE0FA1
:100F2000FF1FE80FF91F608171812F5F3F4F28324B
:100F3000310510F020E030E0FC01EE5AFF4F318324
:100F400020833296415051095183408302C060E0B2
:100F500070E0CB010895AF92BF92CF92DF92EF92F3
:100F6000FF920F931F93CF93DF936C01A0903203F6
:100F7000B0903303E0909F04F090A004F594E794C0
:100F80001E141F049CF4C0E0D0E08BE494E0BBDFAF
:100F90008C018BE494E0B7DF9C01A801B6018AE7DD
:100FA00092E049DF2196EC16FD0679F782E0A8165B
:100FB000B10410F48DE065DCDF91CF911F910F91AA
:100FC000FF90EF90DF90CF90BF90AF900895FC011D
:100FD000E854FF4F4081518114161506E4F432970E
:100FE00020813181F901EE0FFF1FE80FF91F6081A9
:100FF00071812F5F3F4F2A35310510F020E030E03E
:10100000FC01EA54FF4F318320833296415051094D
:101010005183408302C060E070E0CB010895FC0181
:10102000E854FF4F20813181121613065CF4329789
:101030000190F081E02DEE0FFF1FE80FF91F808176
:101040009181089580E090E00895FC01E854FF4FFD
:10105000118210823497118210823296118210828E
:10106000672B29F024EBFC0111922A95E9F70895EA
:10107000CF939093A2048093A10440934A04709369
:10108000F2056093F10580E4489FB001112423E24A
:1010900036E040EE57E085E06DDCC82F23E236E015
:1010A00040EE57E060EC77E086E064DC90E08C0F87
:1010B000911D892B09F0989521E838E04FEF57E012
:1010C0006FEF77E08DE0CADC87E491E05DD51092A8
:1010D000A00410929F0410929C0410929B04109202
:1010E0009E0410929D0460E070E08AE792E0ADDF1C
:1010F000CF91089544E066E470E086E394E0B8CFD1
:1011000008950F931F93CF93DF9320913203309173
:1011100033032115310509F4A5C0EC012730310551
:1011200008F43CC08AE792E052DF8C0100249695D7
:1011300087950794969587950794982F802D049608
:10114000998388838AE792E042DF9B838C838AE7D6
:1011500092E03DDF9D838E838AE792E060DF08178F
:101160001907C9F48AE792E032DF8AE792E02FDFBD
:101170009F8388878AE792E02ADF99878A878AE7B0
:1011800092E04DDF0817190719F488E08A8370C0D0
:1011900089E08A836DC084E08A836AC02630310585
:1011A00099F58AE792E013DF8C01002496958795E4
:1011B0000794969587950794982F802D0496998388
:1011C00088838AE792E003DF9B838C838AE792E03F
:1011D000FEDE9D838E838AE792E021DF08171907E0
:1011E00081F48AE792E0F3DE8AE792E0F0DE9F8303
:1011F00088878AE792E0EBDE99878A8789E08A838D
:1012000037C084E08A8334C023303105E1F48AE7B3
:1012100092E0DDDE00249695879507949695879554
:101220000794982F802D04969983888384E08A837D
:101230008AE792E0CCDE9B838C838AE792E0C7DE6C
:101240009D838E8315C08091430190914401019646
:10125000909344018093430161E070E08AE792E05B
:10126000F4DE06C021E030E0FC01318320831282ED
:10127000DF91CF911F910F9108950F931F930EE06F
:1012800012E026E032E048EE51E064E08CEE9AE0B5
:10129000ECD11F910F9108951092590110925B01AA
:1012A00010925A0140E050E061E08CEE9AE016D2D4
:1012B00061E08CEE9AE028D268E070E08DED95E078
:1012C00079DC64E070E080E090E0AFDD60E070E049
:1012D00088E090E0AADD60E070E089E090E0A5DDC4
:1012E00085E090E038DE40E060E070E088E090E08B
:1012F0002BCC0895CF9368E08CEE9AE0E9D1C82F0B
:10130000882369F068E08CEE9AE0D5D1682F8CEEE6
:101310009AE0D1D1892B11F4BFDF01C0C0E08C2F3E
:10132000CF910895609157017091580181E090E04C
:101330007CDD609155017091560182E090E075DD91
:10134000609151017091520183E090E06EDD6091F7
:1013500053017091540184E090E067DD60914F018A
:101360007091500185E090E060DD86E090E0F3CD83
:10137000089562E08CEE9AE09ED19093580180939C
:10138000570161E08CEE9AE096D1909356018093DC
:10139000550163E08CEE9AE08ED1909352018093D8
:1013A000510164E08CEE9AE086D1909354018093D1
:1013B000530165E08CEE9AE07ED1909350018093CA
:1013C0004F0108958FE39AE027D4882309F494C04D
:1013D0008FE39AE0EBD3CDDF8DDF80E490E090D314
:1013E000882309F460C08EE091E0F6D48FE39FE19A
:1013F0000197F1F700C0000080914D0190914E01DE
:10140000892B41F1BBD321E030E0892B11F020E0A2
:1014100030E080914D0190914E0182239323892BDE
:10142000C9F08AE496E0F8D3882309F449C0809192
:101430004B0190914C019C012F5F3F4F30934C0129
:1014400020934B01069708F43BC010924E01109276
:101450004D0136C068E08CEE9AE03AD1882379F0ED
:1014600080915A0190915B01892B49F468E08CEEE0
:101470009AE021D190934E0180934D0121C068E004
:101480008CEE9AE025D181111BC080915A01909178
:101490005B01892BA9F440E050E068E08CEE9AE013
:1014A0001DD140DF0DC08CE191E096D468E08CEE58
:1014B0009AE00ED140E050E068E08CEE9AE00ED168
:1014C00083EB9BE08DD39C01369527953695279528
:1014D00036952795A5ECB0E249D4AC0152954295DA
:1014E0004F7045275F70452761E08CEE9AE0F6D09B
:1014F00061E08CEE9AE008D18FE39AE08DD38823E7
:1015000019F083EB9BE052C308950F931F9304EFF0
:1015100011E020E030E040E050E060E070E08AE47C
:1015200096E036D320E030E040E050E060E070E04C
:101530008AE396E02DD305E010E020E030E040E0C3
:1015400050E060E070E08AE596E022D320E030E0F1
:1015500040E050E060E070E08BE999E019D300EDE5
:1015600017E020E030E040E050E060E070E08FE322
:101570009AE00ED302E310E020E030E040E050E0DB
:1015800060E070E08FE99BE003D320E030E040E0D2
:1015900050E060E070E086ED9AE0FAD21F910F9182
:1015A0000895FC0115AE14AE17AE16AEE05CFF4F09
:1015B000118210820895FC0184AD95AD0895DC017F
:1015C000DC962D913C91DD972C333105D9F0A05C50
:1015D000BF4F4D915C911197FA013196ED93FC93B9
:1015E000DC01A40FB51F6C932F5F3F4FDC01DD962C
:1015F0003C932E93DC97FC9729F4FC01E05CFF4FB1
:10160000118210820895FC0184AD95AD019795AFCC
:1016100084AF26AD37ADDF01A20FB31F8C912F5FD2
:101620003F4F2C33310519F037AF26AF089517AE71
:1016300016AE08956623B9F0FC01615070E06F5F4B
:101640007F4F680F791F80E04CE8219198E0382F98
:101650003227869530FD842726959150C1F7E617ED
:10166000F70799F7089580E008950F931F93CF939C
:10167000DF93EC01FC0161934996DC011192119218
:101680001D92E817F907D1F7FE01E755FF4F518387
:101690004083329631832083329611830083CE01BA
:1016A00085967FDFCE0189599F4F7BDFDF91CF91F8
:1016B0001F910F91089570E0FC01E60FF71F118E46
:1016C000660F771FFC01E60FF71F81819281089555
:1016D000FC01E60FF11D818D118E08950F931F936C
:1016E000CF93DF93042F152FEC01C959DF4FCE01A3
:1016F00066DF602FCE0163DF612FCE0160DFDF91F7
:10170000CF911F910F9108956F927F928F929F9228
:10171000AF92BF92CF92DF92EF92FF920F931F93FF
:10172000CF93DF93CDB7DEB7EC970FB6F894DEBF5B
:101730000FBECDBF4C01D62E7C0187E6E80EF11C12
:10174000C70139DF3C01892B09F43EC084010755EC
:101750001F4FD801ED91FC9186E00995D801ED91DC
:10176000FC9185E80995D801ED91FC918D2D0995A5
:10177000D801ED91FC91D4018C910995D801ED919E
:10178000FC91862D09958E010F5F1F4F5801A60C05
:10179000B71C6401B9EACB0ED11CC70134DFF801D4
:1017A00081938F01D601ED91FC9109950A151B05D6
:1017B000A1F7F401E755FF4F00811181662DCE019D
:1017C000019638DFF8010995EC960FB6F894DEBF64
:1017D0000FBECDBFDF91CF911F910F91FF90EF9082
:1017E000DF90CF90BF90AF909F908F907F906F9041
:1017F0000895CF9360E072EC81E090E00E944C018C
:1018000060E072EC81E090E00E94D40061D27DDE65
:101810008FE782B988EF81BB9FEF91B980BB58D029
:101820007894C1E061E08C2F6AD02FEF80E792E0DE
:10183000215080409040E1F700C00000CF5FCD30E4
:1018400089F72FEF83ED90E3215080409040E1F73E
:1018500000C00000C1E060E08C2F51D02FEF80E786
:1018600092E0215080409040E1F700C00000CF5F3F
:10187000CD3089F743D93EDCCF910895CF93DF93E4
:10188000EDEEFBE0818360834283C0E0D0E045E081
:10189000BE018DEE9BE098D046E0BE018DEE9BE050
:1018A00093D02196C930D10591F7C1E0D0E043E053
:1018B000BE018DEE9BE088D044E0BE018DEE9BE042
:1018C00083D02196C931D10591F7DF91CF91089549
:1018D0000F931F9308EE13E020E030E040E050E06B
:1018E00060E070E085EC9BE053D140E050E060E0C8
:1018F00070E080E090E0C2DF1F910F910895962F75
:1019000061111AC0482F50E0FA013197EC30F1050F
:1019100088F5E65BFF4F21C288E040C080E434C018
:1019200081E03CC084E03AC080E138C080E436C049
:1019300080E22AC088E028C0482F50E0FA013197A1
:10194000EC30F105B8F4EA5AFF4F07C287EF26C022
:101950008FEB1AC08DEF22C08EEF20C08BEF1EC020
:101960008FEE1CC08FEB1AC08FE70EC08FED0CC03E
:1019700087EF0AC08A3028F4833078F4813018F178
:1019800002C08D3000F580E02FB1911103C0822B91
:1019900081BB0895822381BB089580E020B191111D
:1019A00003C0822B82B90895822382B9089580E111
:1019B000EBCF80E8E9CF8FEEE7CF80E2EFCF82E098
:1019C000EDCF8FEDEBCF08951F93CF93DF9321E001
:1019D00030E002C0220F331F4A95E2F7FB01EE0F01
:1019E000FF1FE60FF71FAC014D5F5F4F5093F30BE6
:1019F0004093F20B9093F50B8093F40B37B1322B9D
:101A000037B938B1722F7095732358B1522B1FB765
:101A1000F8949F0121503109EF2B21F1A091F20B95
:101A2000B091F30BD091F40BC091F50BA817B90747
:101A300019F4ED2FFC2F01C0FC01CF01019640816C
:101A400068E058B9000000C047FF78B9440F0000B3
:101A500000C000C000C078B900C06A9591F721505D
:101A6000310920F71FBF8FEA94E00197F1F700C01A
:101A70000000DF91CF911F910895BBDEFEDB04E6ED
:101A800010E020E030E040E050E060E070E08FE9FE
:101A90009BE07ED040E050E060E070E084E690E0C3
:101AA000EDDE90DCFECFEF92FF920F931F93CF936A
:101AB000DF9307E010E0E12CF12CC1E0D0E0B801A9
:101AC00083EF95E077D8882369F061E0C8015DD89D
:101AD000817099270C2E02C0880F991F0A94E2F793
:101AE000E82AF92A2196095F1F4FCC30D10539F732
:101AF000C701DF91CF911F910F91FF90EF90089553
:101B0000CF93DF93EC01D370CEDF9E0128233923DE
:101B100081E02C173D0709F080E0DF91CF91089517
:101B20000F931F93CF93DF93C8E0D0E000E010E065
:101B300061E0CE012AD8892B29F061E0CE0125D8B9
:101B4000082B192B2796C535D10591F780915C019B
:101B500090915D010817190761F080915E019091E5
:101B60005F0190935D0180935C0110935F0100938E
:101B70005E01DF91CF911F910F910895D1DF809188
:101B80005E0190915F010895FC0111821082089519
:101B90000F931F93FC0100831183228333834483BB
:101BA0005583668377831F910F910895FC0170918F
:101BB0006001609161015091620140916301309137
:101BC00064012091650190916601809167017087A1
:101BD000618752874387348725879687878708954B
:101BE0000F931F9300916001109161012091620198
:101BF00030916301409164015091650160916601EB
:101C000070916701FC0180859185F801E81BF90B53
:101C1000CF011F910F9108956F927F928F929F92A3
:101C2000AF92BF92CF92DF92EF92FF920F931F93EA
:101C3000CF93DF93FC016090600170906101809010
:101C4000620190906301D0916401C0916501B091EF
:101C50006601A091670120853185428553856485A1
:101C6000758586859785A080B180C280D380E48009
:101C7000F5800681178189D0A22EB32EC42ED52ED1
:101C8000E62EF72E082F192F262D372D482D592DEA
:101C90006D2F7C2F8B2F9A2F8DD050F06086718600
:101CA00082869386D487C587B687A78781E001C0DF
:101CB00080E0DF91CF911F910F91FF90EF90DF9027
:101CC000CF90BF90AF909F908F907F906F9008952E
:101CD00085E084BD81E080936E0008951F920F928D
:101CE0000FB60F9211242F933F934F935F936F93EF
:101CF0007F938F939F93AF93209160013091610107
:101D0000409162015091630160916401709165019D
:101D10008091660190916701A0E140D0209360011D
:101D200030936101409362015093630160936401B9
:101D300070936501809366019093670115BAAF9126
:101D40009F918F917F916F915F914F913F912F91D3
:101D50000F900FBE0F901F901895EE0FFF1F0024DD
:101D6000001C0BBE0790F691E02D0994A29FB001D4
:101D7000B39FC001A39F700D811D1124911DB29FBF
:101D8000700D811D1124911D08952A0D3B1D4C1DC0
:101D90005D1D6E1D7F1D801F911F08950024A7FDEE
:101DA00000942A0F301D401D501D601D701D801DA8
:101DB000901D08952A153B054C055D056E057F05B0
:101DC000800791070895FB01DC0102C001900D928C
:101DD00041505040D8F708950F931F93CF93DF934E
:101DE000E091F80BF091F90B238121FF1BC08C01CE
:101DF000D0E0C0E0F80181918F016091F80B709103
:101E0000F90BDB011896ED91FC911997882331F0BD
:101E10000995892B79F3DFEFCFEFECCF8AE00995B5
:101E2000892B19F08FEF9FEF02C08D2F9C2FDF9130
:0C1E3000CF911F910F910895F894FFCFFF
:101E3C000000000200000000DC01000000005379EB
:101E4C007374656D2028476F6F6429005379737420
:0C1E5C00656D20284572726F722900002D
:00000001FF
