:100000006DC000008AC0000088C0000086C00000EB
:1000100084C0000082C0000080C000007EC00000DC
:100020007CC000007AC0000078C0000076C00000EC
:1000300074C0000072C0000070C000006EC00000FC
:100040006CC000000C94E711E0C2000066C0000024
:1000500064C00000ABC200003BC200005EC00000F4
:100060005CC000005AC0000058C0000056C000002C
:1000700054C0000052C0000050C000004EC000003C
:1000800063C20000E1C1000048C0000046C000009B
:1000900044C000000A10C10FC30FC50FC70FC90F1E
:1000A0001010BF0F12100C10CB0FCD0F0E10DB0F66
:1000B000DF0FE10FE30FE50F1410D90FDD0FE70F8E
:1000C000E90FEB0F401023102510271029102B10DB
:1000D00044102110461042102D102F1011241FBE65
:1000E000CFEFD0E1DEBFCDBF11E0A0E0B1E0EEE5A3
:1000F000FBE200E00BBF02C007900D92A636B107ED
:10010000D9F72CE0A6E6B1E001C01D92A534B207F4
:10011000E1F70E94A2100C94AD1572CFCF93DF933C
:10012000EC014C855D85888199810E94B4122881FB
:1001300039818C859D85820F931F998388832E81B9
:100140003F818217930720F08C819D81998388835A
:100150008A859B8528853985821793071CF401962B
:100160009B878A87DF91CF910895CF93DF93FB011F
:100170001082FC0122853385232BF9F09B01EC01D1
:100180006281738144855585C9010E94B4122A8118
:100190003B818C859D85820F931F9B838A832E8153
:1001A0003F818217930721F48C819D819B838A83F1
:1001B0008A859B8501979B878A87DF91CF910895D8
:1001C000E9E7F2E040E452E05583448322E732E07D
:1001D0003783268322E330E0318720871386128617
:1001E00021E030E035872487518340835383428365
:1001F000E5E9F2E043E752E055834483A8E7B2E043
:10020000B783A683A5E0B0E0B187A08713861286E6
:10021000358724875183408353834283611526E9C0
:1002200072078105910501F130F461157B44810568
:10023000910509F127C0611521EE7207810591052D
:1002400061F06115724C81409105E1F480E190E02C
:100250009093C5008093C4001BC082E290E090930D
:10026000C5008093C40014C083E390E09093C50060
:100270008093C4000DC087E690E09093C500809302
:10028000C40006C08FEC90E09093C5008093C4003A
:1002900082E08093C0008EE08093C20088E9809362
:1002A000C10080E091E09093420C8093410C08954E
:1002B000E7E8F2E043EC51E05583448327E232E083
:1002C0003783268324E630E0318720871386128621
:1002D00021E030E035872487518340835383428374
:1002E000E3EBF1E047E252E055834483A0E4B2E05F
:1002F000B783A683A9E1B0E0B187A08713861286F1
:10030000358724875183408353834283611526E9CF
:1003100072078105910501F130F461157B44810577
:10032000910509F127C0611521EE7207810591053C
:1003300061F06115724C81409105E1F480E190E03B
:100340009093CD008093CC001BC082E290E090930C
:10035000CD008093CC0014C083E390E09093CD0057
:100360008093CC000DC087E690E09093CD00809301
:10037000CC0006C08FEC90E09093CD008093CC0031
:1003800082E08093C80086E08093CA0088E9809369
:10039000C90008950F931F93CF93DF931F92CDB79A
:1003A000DEB7898301EC10E0F80180818F7D8083C6
:1003B000BE016F5F7F4F89E792E0B0DEF801808178
:1003C000806280830F90DF91CF911F910F910895EC
:1003D000CF93C82F8A3011F48DE0FADF8C2FDADF4B
:1003E00080E090E0CF9108950F931F93CF93DF9318
:1003F0001F92CDB7DEB7898309EC10E0F801808148
:100400008F7D8083BE016F5F7F4F83EB91E086DE3F
:10041000F8018081806280830F90DF91CF911F91DE
:100420000F91089562E772E087E892E09EDE809186
:100430007202089581E02091910230919202121689
:1004400013060CF480E008951F920F920FB60F92DE
:1004500011240BB60F922F933F934F935F936F939B
:100460007F938F939F93AF93BF93EF93FF93CF931C
:10047000DF931F92CDB7DEB78091BD019091BE0191
:100480001816190654F4BE016F5F7F4F83EB91E09D
:100490006CDE89818093CE0005C0E9ECF0E08081BC
:1004A0008F7D80830F90DF91CF91FF91EF91BF916E
:1004B000AF919F918F917F916F915F914F913F91FC
:1004C0002F910F900BBE0F900FBE0F901F9018959D
:1004D0001F920F920FB60F9211240BB60F922F930B
:1004E0003F934F935F936F937F938F939F93AF93BC
:1004F000BF93EF93FF93809183029091840218162B
:10050000190654F466E671E089E792E02EDE8091E8
:1005100066018093C60005C0E1ECF0E080818F7D2C
:100520008083FF91EF91BF91AF919F918F917F91C8
:100530006F915F914F913F912F910F900BBE0F9054
:100540000FBE0F901F9018951F920F920FB60F922B
:1005500011240BB60F922F933F934F935F936F939A
:100560007F938F939F93AF93BF93EF93FF9380916C
:10057000CE008093780286E00E94171068E772E050
:1005800087E892E0CBDDFF91EF91BF91AF919F9112
:100590008F917F916F915F914F913F912F910F902C
:1005A0000BBE0F900FBE0F901F9018951F920F92C9
:1005B0000FB60F9211240BB60F922F933F934F93C8
:1005C0005F936F937F938F939F93AF93BF93EF93BB
:1005D000FF938091C6008093A30263EA72E085E9ED
:1005E00092E09CDDFF91EF91BF91AF919F918F9130
:1005F0007F916F915F914F913F912F910F900BBE23
:100600000F900FBE0F901F9018951F920F920FB66C
:100610000F9211240BB60F922F933F934F935F933A
:100620006F937F938F939F93AF93BF93CF93EF93EA
:10063000FF93EDEEF0E0C0818091EC00682F70E058
:10064000807F8083729562956F7067277F706727C0
:100650008091EE008F7DC1F52091F2008091F30032
:10066000E2E7F1E022952695277090E0880F991F28
:10067000880F991F880F991F822B91838083809107
:10068000EF008F70828390E0009759F0E5E7F1E08A
:100690008B589E4FAAEFB0E02C912193E817F907F1
:1006A000D9F71092EE0080E88093EF00FB01EE0F87
:1006B000FF1FEB55FD4F0190F081E02D82E791E0A7
:1006C0000995C093ED00D8C08091EE008F7B09F0B2
:1006D00057C0FB01EE0FFF1FEB55FD4F0190F0815E
:1006E000E02D82E791E0099580917401882309F457
:1006F00040C0E2E7F1E080819181969587959695DB
:100700008795969587958093F30080818295880FD1
:10071000807E8093F2001092F1001092F0008281AE
:10072000893019F081110DC01CC0E5E7F1E02DE71B
:1007300031E0AAEFB0E081918C93E217F307D9F78B
:1007400010C080E022E731E0AAEFB0E0E82FF0E04F
:10075000EE58FE4F93819C938F5FF9019281891728
:10076000A8F31092EE0080917401805C8093EF00FA
:1007700004C01092EE001092EF00C093ED007CC018
:100780008091EE0090E08F77892BC1F52091F200E7
:100790008091F300E2E7F1E022952695277090E042
:1007A000880F991F880F991F880F991F822B91839B
:1007B00080838091EF008F70828390E0009759F0E2
:1007C000E5E7F1E08B589E4FAAEFB0E02C91219322
:1007D0008E179F07D9F71092EE0080E88093EF0004
:1007E000FB01EE0FFF1FEB55FD4F0190F081E02D57
:1007F00082E791E00995C093ED003EC08091EE0044
:100800008F75C1F52091F2008091F300E2E7F1E0ED
:1008100022952695277090E0880F991F880F991FC1
:10082000880F991F822B918380838091EF008F70B6
:10083000828390E0009759F0E5E7F1E08B589E4FF6
:10084000AAEFB0E02C912193E817F907D9F710929D
:10085000EE0080E88093EF00FB01EE0FFF1FEB55E9
:10086000FD4F0190F081E02D82E791E00995C09362
:10087000ED0002C08091EE00FF91EF91CF91BF910A
:10088000AF919F918F917F916F915F914F913F9128
:100890002F910F900BBE0F900FBE0F901F901895C9
:1008A000CF93DF93C82FE82FF0E0EE0FFF1FEB553B
:1008B000FD4F0190F081E02D682F87E691E00995CA
:1008C000C295C07FC093ED0080916901882309F42F
:1008D0005CC01092EE001092EF008F3FC1F1E7E68E
:1008E000F1E080819181969587959695879596956B
:1008F00087958093F30080818295880F807E809316
:10090000F2001092F1001092F0008281893019F00B
:1009100081110DC033C0EAE6F1E022E731E0AAEF31
:10092000B0E081918C93E217F307D9F727C080E0FC
:10093000C7E6D1E0AAEFB0E0E82FF0E0E959FE4FBA
:1009400093819C938F5F9A818917B0F317C0E7E674
:10095000F1E08081918196958795969587959695FA
:1009600087958093F30080818295880F807E8093A5
:10097000F2001092F10084E08093F0008091690110
:10098000805C8093EF0081E001C080E0DF91CF9137
:1009900008958F3008F06DC0E82FF0E0EE0FFF1FD4
:1009A000EB55FD4F31832083982F9295907F909344
:1009B000ED00232BD9F41092EE001092EF0021E00D
:1009C00030E0A90102C0440F551F8A95E2F7CA0121
:1009D000EEEDF0E02081809582238083EFEDF0E062
:1009E000808190958923808380E008959091EF0025
:1009F000907C09F040C01092EE00EFEEF0E0108223
:100A00001092EC009B0136952795369527953695E3
:100A100027952093F3006295660F607E6093F20045
:100A20009A013695279536952795369527952093E3
:100A3000F7004295440F407E4093F6001092F50077
:100A40001092F40090E8908321E030E0A90102C008
:100A5000440F551F8A95E2F7CA01EEEDF0E02081C0
:100A6000822B8083EFEDF0E08081892B808380E012
:100A7000089581E0089581E008958F3008F049C01D
:100A8000E82FF0E0EE0FFF1FEB55FD4F3183208381
:100A9000982F9295907F9093ED00232BD9F410928C
:100AA000EE001092EF0021E030E0A90102C0440FF7
:100AB000551F8A95E2F7CA01EEEDF0E0208180959E
:100AC00082238083EFEDF0E08081909589238083FD
:100AD00080E008959091EF00907CE9F41092EE0090
:100AE0001092EF001092EC0021E030E0A90102C06A
:100AF000440F551F8A95E2F7CA01EEEDF0E0208120
:100B0000822B8083EFEDF0E08081892B808381E070
:100B1000089581E0089580E00895CF93DF9382E007
:100B20008093E2008CE08093E30087E38093E4000D
:100B300080E0CDEED0E0AEEEB0E0EFEEF0E0982F4A
:100B40009295907F98831C9210828F5F8F30B9F7B7
:100B5000E8EDF0E080818260808380EB8093DB00B1
:100B6000DF91CF910895442369F0FC01EE0FFF1F40
:100B7000E451FB4F71836083FC01E45CF94F21E099
:100B800020830895880F991FE091EA04F091EB0407
:100B9000E80FF91F71836083FC01EA5DF94F21E0E2
:100BA00030E0318320830895662341F0880F991F38
:100BB000FC01E451FB4F808191810895880F991FBA
:100BC000E091EA04F091EB04E80FF91F8081918134
:100BD0000895FB01EE0FFF1FE80FF91F808191813F
:100BE000892B21F01182108281E0089580E0089520
:100BF000FC01EC5AFF4F20813181253231058CF503
:100C000034970190F081E02DDF01AA0FBB1FA80FE0
:100C1000B91F6D937C93BF016F5F7F4F6832710581
:100C2000D0F4660F771FDC01A60FB71F4D935C93BE
:100C30003296E832F10510F0E0E0F0E0DC01A05B74
:100C4000BF4FED93FC93FC01EC5AFF4F2E5F3F4FDB
:100C5000318320830895FC0151834083E1E0F0E07B
:100C6000EDCF08951F93CF93DF93EC018091830123
:100C700090918401019709F073C08A818850823075
:100C800008F046C06B8170E0762F66278C81680F74
:100C9000711D80913A0690913B066817790780F4A0
:100CA0004D8150E0542F44278E81480F511D80ED17
:100CB00095E09EDF81E090E09093800180937F013A
:100CC0006F8170E0762F66278885680F711D80918F
:100CD0003A0690913B066817790780F4498550E001
:100CE000542F44278A85480F511D80ED95E080DF01
:100CF00081E090E09093800180937F014881598149
:100D00004F71552760E070E080ED95E071DF98C08D
:100D10006B8170E0762F66278C81680F711D809142
:100D20003A0690913B066817790780F44D8150E0B0
:100D3000542F44278E81480F511D80ED95E058DFD8
:100D400081E090E09093800180937F0148815981F8
:100D50004F71552760E070E080ED95E049DF70C08D
:100D600068817981CB010024880F991F001C880FAE
:100D7000991F001C892F902D182F11706F717727E4
:100D8000412F80E090E0EFDE8A8188508230D8F5F4
:100D90008B8190E0982F88272C81820F911D2091C4
:100DA0003A0630913B068217930778F46D8170E024
:100DB000762F66272E81620F711D412FD4DE81E0D0
:100DC00090E09093800180937F018F8190E0982F35
:100DD00088272885820F911D20913A0630913B0685
:100DE0008217930768F5698570E0762F66272A8554
:100DF000620F711D412FB7DE81E090E0909380017A
:100E000080937F011DC08B8190E0982F88272C81D3
:100E1000820F911D20913A0630913B06821793076D
:100E200078F46D8170E0762F66272E81620F711D38
:100E3000412F99DE81E090E09093800180937F01C3
:100E4000DF91CF911F910895AB01BC0184E994E03B
:100E5000CFCE08950F931F93CF93DF93FC01E854F7
:100E6000FF4F0190F081E02DE735F1050CF055C002
:100E7000DC01AC54BF4F0D90BC91A02DED01CC0F07
:100E8000DD1FC80FD91F79836883BD016F5F7F4F56
:100E90006A35710588F5EC01CC54DF4F798368839E
:100EA00024968F010F5F1F4F19830883660F771FEA
:100EB000EC01C60FD71F59834883AD014E5F5F4FCA
:100EC0004A35510520F5440F551FEC01C40FD51FBD
:100ED000398328831396AA35B10510F0A0E0B0E05D
:100EE000EC01CC54DF4FB983A883DC01A854BF4F79
:100EF0003396ED93FC9311C0DC0111965C934E93F5
:100F000013963C932E931297A2E0B0E0E9CFDC0158
:100F10002D933C93A1E0B0E0E3CFDF91CF911F91FF
:100F20000F910895FC01EC5AFF4F40815181141636
:100F30001506E4F4329720813181F901EE0FFF1F8D
:100F4000E80FF91F608171812F5F3F4F2832310513
:100F500010F020E030E0FC01EE5AFF4F3183208397
:100F60003296415051095183408302C060E070E0E5
:100F7000CB010895AF92BF92CF92DF92EF92FF9292
:100F80000F931F93CF93DF936C01A0907B03B090DE
:100F90007C03E090E804F090E904F594E7941E14D3
:100FA0001F049CF4C0E0D0E084E994E0BBDF8C0136
:100FB00084E994E0B7DF9C01A801B60183EC92E0DC
:100FC00049DF2196EC16FD0679F782E0A816B104F8
:100FD00010F48DE065DCDF91CF911F910F91FF90B0
:100FE000EF90DF90CF90BF90AF900895FC01E85450
:100FF000FF4F4081518114161506E4F43297208189
:101000003181F901EE0FFF1FE80FF91F6081718137
:101010002F5F3F4F2A35310510F020E030E0FC0112
:10102000EA54FF4F31832083329641505109518356
:10103000408302C060E070E0CB010895FC01E854F9
:10104000FF4F20813181121613065CF43297019014
:10105000F081E02DEE0FFF1FE80FF91F80819181D5
:10106000089580E090E00895FC01E854FF4F11825C
:101070001082349711821082329611821082672B6F
:1010800029F024EBFC0111922A95E9F70895CF93FA
:101090009093EB048093EA044093930470933B068F
:1010A00060933A0680E4489FB001112422E336E0C1
:1010B00040EE57E085E06DDCC82F22E336E040EEDD
:1010C00057E060EC77E086E064DC90E08C0F911DE7
:1010D000892B09F0989521E938E04FEF57E06FEF41
:1010E00077E08DE0CADC81E891E00E942E11109239
:1010F000E9041092E8041092E5041092E4041092BE
:10110000E7041092E60460E070E083EC92E0ACDF6C
:10111000CF91089544E066E470E08FE794E0B7CFA4
:1011200008950F931F93CF93DF9320917B0330910A
:101130007C032115310509F4A5C0EC0127303105E8
:1011400008F43CC083EC92E051DF8C0100249695BA
:1011500087950794969587950794982F802D0496E8
:101160009983888383EC92E041DF9B838C8383ECBB
:1011700092E03CDF9D838E8383EC92E05FDF081773
:101180001907C9F483EC92E031DF83EC92E02EDFA3
:101190009F83888783EC92E029DF99878A8783EC95
:1011A00092E04CDF0817190719F488E08A8370C0B1
:1011B00089E08A836DC084E08A836AC02630310565
:1011C00099F583EC92E012DF8C01002496958795C7
:1011D0000794969587950794982F802D0496998368
:1011E000888383EC92E002DF9B838C8383EC92E024
:1011F000FDDE9D838E8383EC92E020DF08171907C4
:1012000081F483EC92E0F2DE83EC92E0EFDE9F83E8
:10121000888783EC92E0EADE99878A8789E08A836F
:1012200037C084E08A8334C023303105E1F483EC95
:1012300092E0DCDE00249695879507949695879535
:101240000794982F802D04969983888384E08A835D
:1012500083EC92E0CBDE9B838C8383EC92E0C6DE52
:101260009D838E8315C080917D0190917E010196B2
:1012700090937E0180937D0161E070E083EC92E0C9
:10128000F3DE06C021E030E0FC01318320831282CE
:10129000DF91CF911F910F9108950F931F930AE152
:1012A00012E022E132E044EF51E064E085E39BE0AC
:1012B0002DD21F910F91089560E070E08DE190E0D4
:1012C000C3DD60E070E08EE190E0BEDD8FE190E094
:1012D00051CE0895CF9368E085E39BE046D2C82FB6
:1012E000882389F068E085E39BE036D2892B51F4AE
:1012F00068E085E39BE03ED2DFDF10928801109228
:10130000870101C0C0E08C2FCF91089568E085E38C
:101310009BE022D2BC018DE190E096DD69E085E39F
:101320009BE01AD2BC018EE190E08EDD8FE190E06F
:1013300021CE089562E085E39BE00ED29093920166
:101340008093910161E085E39BE006D29093900148
:1013500080938F0163E085E39BE0FED190938C0145
:1013600080938B0164E085E39BE0F6D190938E013E
:1013700080938D0165E085E39BE0EED190938A0137
:10138000809389010895AF92BF92CF92DF92EF923E
:10139000FF920F931F9385E39BE0F1D1892B09F412
:1013A000C0C0C8DF97DF811190C080E090E00FD708
:1013B000882309F47CC04CD79093940180939301C7
:1013C00020918701309188018223932328173907C0
:1013D00019F183E996E099D7882309F476C08091C2
:1013E0008501909186019C012F5F3F4F30938601CC
:1013F00020938501069750F0109288011092870182
:101400004FEF5FEF68E085E39BE008D27FDF8EE07F
:1014100091E00E94D01259C068E085E39BE0A5D11D
:10142000882351F168E085E39BE096D19F938F93E9
:1014300081E291E09F938F930E94BD1268E085E363
:101440009BE098D168E085E39BE086D120919301F1
:1014500030919401822B932B0F900F900F900F904F
:101460002817390791F168E085E39BE075D19093E7
:1014700088018093870129C068E085E39BE075D1EE
:10148000811123C08091930190919401892BE9F4FB
:1014900085E391E00E94D01240E050E068E085E3EF
:1014A0009BE0BCD110928601109285010EC081E4B0
:1014B00091E00E94D01268E085E39BE056D140E0C5
:1014C00050E068E085E39BE0A9D1C2D690939401F7
:1014D000809393018CEF9BE0EDD60F2EF8EEAF2EAC
:1014E000F02D0F2EF3E0BF2EF02DC12CD12CE12CCE
:1014F000F12C00E010E0B5D7422F532F61E085E3D7
:101500009BE08CD1409193015091940168E085E378
:101510009BE084D161E085E39BE096D188E89AE086
:10152000AFD688E89AE0F1D6882361F080E591E0B3
:101530009F938F930E94BD128CEF9BE0A1D6BCDEDF
:101540000F900F901F910F91FF90EF90DF90CF9031
:10155000BF90AF9008950F931F9304EF11E020E028
:1015600030E040E050E060E070E083E996E07AD659
:1015700020E030E040E050E060E070E083E896E09A
:1015800071D605E010E020E030E040E050E060E09F
:1015900070E083EA96E066D620E030E040E050E07C
:1015A00060E070E084EE99E05DD600ED17E020E0A9
:1015B00030E040E050E060E070E088E89AE052D629
:1015C00002E310E020E030E040E050E060E070E056
:1015D00088EE9BE047D620E030E040E050E060E05D
:1015E00070E08FE19BE03ED61F910F910895FC01C2
:1015F00015AE14AE17AE16AEE05CFF4F118210822E
:101600000895FC0184AD95AD089521E0FC0184AD01
:1016100095ADCC9709F020E0822F089521E0FC01E0
:1016200084AD95AD892B09F020E0822F0895DC016F
:10163000DC962D913C91DD972C333105D9F0A05CDF
:10164000BF4F4D915C911197FA013196ED93FC9348
:10165000DC01A40FB51F6C932F5F3F4FDC01DD96BB
:101660003C932E93DC97FC9729F4FC01E05CFF4F40
:10167000118210820895FC0184AD95AD019795AF5C
:1016800084AF26AD37ADDF01A20FB31F8C912F5F62
:101690003F4F2C33310519F037AF26AF089517AE01
:1016A00016AE0895FC0126AD37AD620F731F6C3383
:1016B000710510F06C537109FC01E60FF71F808172
:1016C0000895FC0115AE14AE17AE16AEE05CFF4FE8
:1016D0001182108208956623B9F0FC01615070E018
:1016E0006F5F7F4F680F791F80E04CE8219198E091
:1016F000382F3227869530FD842726959150C1F7E3
:10170000E617F70799F7089580E008950F931F9360
:10171000CF93DF93EC01FC0161934996DC011192B8
:1017200011921D92E817F907D1F7FE01E755FF4F17
:101730005183408332963183208332961183008314
:10174000CE01859654DFCE0189599F4F50DFDF913E
:10175000CF911F910F91089570E0660F771F860F4C
:10176000971FFC01818192810895860F911DFC01D4
:10177000818D0895860F911DFC01118E0895CF92E1
:10178000DF92EF92FF920F931F93CF93DF937C0131
:10179000EC01CB59DF4F6C0181E6C80ED11C8701EB
:1017A0000B5D1F4F1DC00E941202809372022881A0
:1017B0003981F701E20FF31F85A32F5F3F4F2C33D1
:1017C000310519F03983288302C019821882F60185
:1017D000808191818D33910518F4019691838083E6
:1017E0000E941A02811104C0C8010FDF8823D9F2B8
:1017F000A701475E5F4FB7016F5F7F4FF701008121
:101800002CE030E0C7018596C5D2DF91CF911F91C2
:101810000F91FF90EF90DF90CF9008950F931F935B
:10182000CF93DF93042F152FEC01C959DF4FCE0161
:10183000FEDE602FCE01FBDE612FCE01F8DEDF91F0
:10184000CF911F910F9108956F927F928F929F92E7
:10185000AF92BF92CF92DF92EF92FF920F931F93BE
:10186000CF93DF93CDB7DEB7EC970FB6F894DEBF1A
:101870000FBECDBF4C01D62E7C0187E6E80EF11CD1
:10188000C701BFDE3C01892B09F43EC08401075526
:101890001F4FD801ED91FC9186E00995D801ED919B
:1018A000FC9185E80995D801ED91FC918D2D099564
:1018B000D801ED91FC91D4018C910995D801ED915D
:1018C000FC91862D09958E010F5F1F4F5801A60CC4
:1018D000B71C6401B9EACB0ED11CC701CCDEF801FC
:1018E00081938F01D601ED91FC9109950A151B0595
:1018F000A1F7F401E755FF4F00811181662DCE015C
:101900000196E9DEF8010995EC960FB6F894DEBF72
:101910000FBECDBFDF91CF911F910F91FF90EF9040
:10192000DF90CF90BF90AF909F908F907F906F90FF
:1019300008950F939093A4018093A3017093A20143
:101940006093A1015093A00140939F0130939E01A9
:1019500020939D0100939C0110929B0110929A018B
:101960001092990181E090E0909398018093970103
:101970000F9108958091A3019091A40142DE60919E
:10198000990170919A016817790738F082E090E028
:10199000909398018093970108958091A30190916D
:1019A000A40180DE863039F083E090E090939801C6
:1019B0008093970108958091990190919A010196E1
:1019C00090939A018093990108958091A301909139
:1019D000A40117DE6091990170919A016817790747
:1019E00038F082E090E090939801809397010895F9
:1019F0008091A3019091A40155DE853839F084E0EF
:101A000090E09093980180939701089580919901B7
:101A100090919A01019690939A018093990108956B
:101A20008091A3019091A401ECDD609199017091E6
:101A30009A016817790738F082E090E09093980156
:101A40008093970108958091A3019091A4012ADECB
:101A50008091990190919A01019690939A018093B7
:101A6000990108958091A3019091A401CADD60912C
:101A7000990170919A016817790738F082E090E037
:101A8000909398018093970108958091A30190917C
:101A9000A40108DE90919C01891739F085E090E05F
:101AA0009093980180939701089580919901909166
:101AB0009A01019690939A018093990108958091DB
:101AC000A3019091A4019DDD6091990170919A010B
:101AD0006817790738F082E090E09093980180933E
:101AE000970108958091A3019091A401DBDD80937B
:101AF0009B018D3350F49BEA899F912D112496957B
:101B0000292F220F920F891739F086E090E09093E9
:101B100098018093970108958091990190919A017D
:101B2000019690939A01809399010895CF93DF9342
:101B3000C0919901D0919A01219780919B01C80F82
:101B4000D11D8091A3019091A4015BDDC817D90735
:101B500038F082E090E090939801809397010CC058
:101B600020919B018091990190919A01820F911D82
:101B700090939A0180939901DF91CF910895EF920C
:101B8000FF920F931F93CF93DF93CDB7DEB7EC9700
:101B90000FB6F894DEBF0FBECDBF8091A301909128
:101BA000A4012FDD2091990130919A01281739075E
:101BB00028F460919B01611108C020C082E090E090
:101BC000909398018093970138C0CE0101967C01D3
:101BD00000E010E0B8016B5F7F4F8091A30190910E
:101BE000A40160DDF70181937F010F5F1F4F6091BA
:101BF0009B01862F90E00817190764F3CE01019628
:101C00006ADD182F6091990170919A018091A3016A
:101C10009091A40147DD181739F087E090E0909388
:101C200098018093970109C08091990190919A0140
:101C3000019690939A0180939901EC960FB6F894CF
:101C4000DEBF0FBECDBFDF91CF911F910F91FF90EF
:101C5000EF900895CF93DF93EC01219718161906A2
:101C60003CF48091A3019091A40105DD2197C8F770
:101C7000DF91CF9108957EDE809197019091980138
:101C8000019721F5A2DE809197019091980101972B
:101C9000E9F4E8DE80919701909198010197B1F401
:101CA000BFDE8091970190919801019779F407DF49
:101CB0008091970190919801019741F437DF8091CD
:101CC000970190919801019709F459CF0895DF92F7
:101CD000EF92FF920F931F93CF93DF9300919B019D
:101CE00010E00B5F1F4F063011050CF440C0C5E03B
:101CF000D0E0DD24D394BE018091A3019091A40192
:101D0000D1DCF82EBE016F5F7F4F8091A3019091CF
:101D1000A401C8DCE82EBE016E5F7F4F8091A30155
:101D20009091A401BFDC4F2D50E020919D01309196
:101D30009E0142175307BCF49A01440F551FE091CE
:101D4000A101F091A201E40FF51F4E2D50E0BA0160
:101D5000782B7183608380919F019091A001FC0199
:101D6000E20FF31FD0822396C017D10724F2C0914F
:101D70009B01D0E025968091A3019091A4017BDC8A
:101D80002197C8F7DF91CF911F910F91FF90EF90AE
:101D9000DF9008958F929F92AF92BF92CF92DF9281
:101DA000EF92FF920F93CF934C015B016A0179018F
:101DB000C02F10929601109295010C2F9701A60149
:101DC000B501C401B6DD8091A3019091A40126DC88
:101DD000882329F0809195019091960131C04BDFC5
:101DE00080919701909198018130910519F00297A7
:101DF00071F020C06CDF88E01AD18091950190913C
:101E0000960101969093960180939501D6CF80918B
:101E1000A3019091A401F9DB882329F08091A3010B
:101E20009091A4014EDC89E002D1809195019091BE
:101E3000960106C081E090E00DDF8AE0F8D0BDCFCA
:101E4000CF910F91FF90EF90DF90CF90BF90AF9028
:101E50009F908F900895CF9360E072EC81E090E0C6
:101E60000E94580160E072EC81E090E00E94E00086
:101E7000A8D271DB8FE782B988EF81BB9FEF91B960
:101E800080BB59D07894C1E061E08C2F6BD02FEFEC
:101E900080E792E0215080409040E1F700C00000D0
:101EA000CF5FCD3089F72FEF83ED90E32150804055
:101EB0009040E1F700C00000C1E060E08C2F52D0FC
:101EC0002FEF80E792E0215080409040E1F700C082
:101ED0000000CF5FCD3089F70E948D051BD9CF91CF
:101EE0000895CF93DF93E6E3FCE081836083428330
:101EF000C0E0D0E045E0BE0186E39CE0CAD046E009
:101F0000BE0186E39CE0C5D02196C930D10591F78A
:101F1000C1E0D0E043E0BE0186E39CE0BAD044E0FB
:101F2000BE0186E39CE0B5D02196C931D10591F779
:101F3000DF91CF9108950F931F9308EE13E020E0F7
:101F400030E040E050E060E070E08EE09CE08AD15C
:101F500040E050E060E070E080E090E0C2DF1F9180
:101F60000F910895962F61111AC0482F50E0FA0181
:101F70003197EC30F10588F5E65BFF4F67C288E0EA
:101F800040C080E434C081E03CC084E03AC080E1DD
:101F900038C080E436C080E22AC088E028C0482FDC
:101FA00050E0FA013197EC30F105B8F4EA5AFF4FEE
:101FB0004DC287EF26C08FEB1AC08DEF22C08EEF87
:101FC00020C08BEF1EC08FEE1CC08FEB1AC08FE7B6
:101FD0000EC08FED0CC087EF0AC08A3028F4833022
:101FE00078F4813018F102C08D3000F580E02FB117
:101FF000911103C0822B81BB0895822381BB089578
:1020000080E020B1911103C0822B82B90895822310
:1020100082B9089580E1EBCF80E8E9CF8FEEE7CF7A
:1020200080E2EFCF82E0EDCF8FEDEBCF0895482F28
:1020300050E0FA013197EC30F10598F4EE59FF4F7A
:1020400005C288E01BC080E416C081E017C084E0B0
:1020500015C080E113C080E411C080E20CC088E0AC
:102060000AC08A3028F4833040F4813088F002C0FE
:102070008D3070F480E08FB9089580E080B90895C4
:1020800080E1F9CF80E8F7CF80E2F8CF82E0F6CFA9
:1020900008951F93CF93DF9321E030E002C0220F19
:1020A000331F4A95E2F7FB01EE0FFF1FE60FF71F04
:1020B000AC014D5F5F4F50933C0C40933B0C9093B1
:1020C0003E0C80933D0C37B1322B37B938B1722FAB
:1020D0007095732358B1522B1FB7F8949F0121506C
:1020E0003109EF2B21F1A0913B0CB0913C0CD09128
:1020F0003D0CC0913E0CA817B90719F4ED2FFC2F29
:1021000001C0FC01CF010196408168E058B9000090
:1021100000C047FF78B9440F000000C000C000C0F5
:1021200078B900C06A9591F72150310920F71FBF97
:102130008FEA94E00197F1F700C00000DF91CF91A2
:102140001F91089588DEA9D804E610E020E030E071
:1021500040E050E060E070E088EE9BE083D040E03B
:1021600050E060E070E084E690E0BBDE0CD9FECF8A
:10217000EF92FF920F931F93CF93DF9307E010E04E
:10218000E12CF12CC1E0D0E0B8018CE396E00E9494
:10219000E905882371F061E0C8010E94D4058170CF
:1021A00099270C2E02C0880F991F0A94E2F7E82A9B
:1021B000F92A2196095F1F4FCC30D10529F7C701B5
:1021C000DF91CF911F910F91FF90EF900895CF93E2
:1021D000DF93EC01D370CCDF9E012823392381E00B
:1021E0002C173D0709F080E0DF91CF9108950F9300
:1021F0001F93CF93DF93C8E0D0E000E010E061E0F0
:10220000CE010E94D405892B31F061E0CE010E94FD
:10221000D405082B192B2796C535D10581F7C801A0
:102220002091A5013091A6010217130761F02091BA
:10223000A7013091A8013093A6012093A501109326
:10224000A8010093A701DF91CF911F910F910895ED
:10225000CEDF8091A7019091A8010895FC01118221
:10226000108208950F931F93FC0100831183228332
:10227000338344835583668377831F910F91089539
:10228000FC017091A9016091AA015091AB014091AC
:10229000AC013091AD012091AE019091AF018091E0
:1022A000B001708761875287438734872587968777
:1022B00087870895AF92BF92CF92DF92EF92FF92FD
:1022C0000F931F93FC012091A9013091AA01409125
:1022D000AB015091AC016091AD017091AE01809164
:1022E000AF019091B001A084B184C284D384E4840E
:1022F000F5840685178526D11F910F91FF90EF90E9
:10230000DF90CF90BF90AF9008956F927F928F92A1
:102310009F92AF92BF92CF92DF92EF92FF920F9374
:102320001F93CF93DF93FC016090A9017090AA01E5
:102330008090AB019090AC01D091AD01C091AE0105
:10234000B091AF01A091B0012085318542855385C0
:102350006485758586859785A080B180C280D3808D
:10236000E480F58006811781D8D0A22EB32EC42E2A
:10237000D52EE62EF72E082F192F262D372D482D76
:10238000592D6D2F7C2F8B2F9A2FE5D050F0608622
:10239000718682869386D487C587B687A78781E0B2
:1023A00001C080E0DF91CF911F910F91FF90EF90DE
:1023B000DF90CF90BF90AF909F908F907F906F9065
:1023C000089585E084BD81E080936E0008951F929A
:1023D0000F920FB60F9211242F933F934F935F9359
:1023E0006F937F938F939F93AF932091A901309127
:1023F000AA014091AB015091AC016091AD01709187
:10240000AE018091AF019091B001A0E18FD02093F7
:10241000A9013093AA014093AB015093AC016093A2
:10242000AD017093AE018093AF019093B00115BAE6
:10243000AF919F918F917F916F915F914F913F915C
:102440002F910F900FBE0F901F901895EE0FFF1F4A
:102450000024001C0BBE0790F691E02D09946894AF
:1024600001C0E8948F929F92CF93DF9305D0DF91C4
:10247000CF919F908F90089588249924F401E401CE
:10248000B0E49F93AA279A158B049C04ED05FE05E2
:10249000CF05D007A10798F4AD2FDC2FCF2FFE2F4B
:1024A000E92D982C892E982F872F762F652F542F62
:1024B000432F322F2227B85031F7BF9127C01B2E50
:1024C000BF91BB27220F331F441F551F661F771F65
:1024D000881F991F881C991CEE1FFF1FCC1FDD1F32
:1024E000AA1FBB1F8A149B04EC05FD05CE05DF0562
:1024F000A007B10748F08A189B08EC09FD09CE092E
:10250000DF09A00BB10B21601A94E1F62EF49401BF
:10251000AF01BE01CD01000C08952A0D3B1D4C1DDD
:102520005D1D6E1D7F1D801F911F08950024A7FD56
:1025300000942A0F301D401D501D601D701D801D10
:10254000901D08952A193B094C095D096E097F0900
:10255000800B910B08952A153B054C055D056E0512
:102560007F05800791070895FB01DC0102C00190FF
:102570000D9241505040D8F70895CF93DF93CDB7D7
:10258000DEB7AE014B5F5F4FFA0161917191AF0110
:102590008091410C9091420C33D0DF91CF910895FE
:1025A0000F931F93CF93DF93E091410CF091420C76
:1025B000238121FF1BC08C01D0E0C0E0F801819194
:1025C0008F016091410C7091420CDB011896ED91E6
:1025D000FC911997882331F00995892B79F3DFEF66
:1025E000CFEFECCF8AE00995892B19F08FEF9FEFA1
:1025F00002C08D2F9C2FDF91CF911F910F910895D5
:102600002F923F924F925F926F927F928F929F9202
:10261000AF92BF92CF92DF92EF92FF920F931F93F0
:10262000CF93DF93CDB7DEB72B970FB6F894DEBF0D
:102630000FBECDBF6C017B018A01FC01178216829F
:10264000838181FFBFC1CE0101963C01F6019381D8
:10265000F70193FD859193FF81917F01882309F410
:10266000ADC1853239F493FD859193FF81917F014E
:10267000853221F4B60190E0D6D1E8CF912C212CFF
:10268000312CFFE1F315D8F08B3279F038F4803239
:1026900079F08332A1F4232D20611DC08D3261F0C9
:1026A000803369F4232D216016C0832D8260382E7B
:1026B000E32DE4603E2E2AC0F32DF8601DC037FCE8
:1026C0002DC020ED280F2A3040F08E32B9F436FCB0
:1026D00075C1232D2064322E19C036FE06C08AE053
:1026E000989E200D1124922E11C0EAE02E9E200DFE
:1026F0001124222EF32DF0623F2E08C08C3621F4D7
:10270000832D8068382E02C0883641F4F70193FD8E
:10271000859193FF81917F018111B3CF982F9F7D88
:102720009554933028F40C5F1F4F9FE399830DC09D
:10273000833631F0833771F0833509F055C020C0FE
:10274000F801808189830E5F1F4F88248394912C28
:10275000530112C02801F2E04F0E511CF801A08075
:10276000B18036FE03C0692D70E002C06FEF7FEFCD
:10277000C5014ED14C018201F32DFF773F2E15C0CC
:10278000280122E0420E511CF801A080B18036FEE3
:1027900003C0692D70E002C06FEF7FEFC5012DD13E
:1027A0004C01F32DF0683F2E820133FC19C0822DBD
:1027B00090E088169906A0F4B60180E290E033D14B
:1027C0002A94F5CFF50137FC859137FE81915F01A1
:1027D000B60190E028D121102A9421E0821A9108B4
:1027E0008114910479F7E1C0843611F0893639F506
:1027F000F80137FE07C060817181828193810C5F8F
:102800001F4F08C060817181072E000C880B990B47
:102810000E5F1F4FF32DFF763F2E97FF09C0909557
:102820008095709561957F4F8F4F9F4FF0683F2E39
:102830002AE030E0A30133D1882E861844C08537C2
:1028400031F4232D2F7EB22E2AE030E025C0932DC7
:10285000997FB92E8F36C1F018F4883579F0AEC063
:10286000803719F0883721F0A9C0E92FE061BE2E2A
:10287000B4FE0DC0FB2DF460BF2E09C034FE0AC0AB
:10288000292F2660B22E06C028E030E005C020E1E6
:1028900030E002C020E132E0F801B7FE07C06081FD
:1028A0007181828193810C5F1F4F06C060817181AD
:1028B00080E090E00E5F1F4FA301F1D0882E8618B4
:1028C000FB2DFF773F2E36FE0DC0232D2E7FA22E2F
:1028D000891458F434FE0BC032FC09C0832D8E7E5F
:1028E000A82E05C0B82CA32C03C0B82C01C0B92C4D
:1028F000A4FE0FC0FE01E80DF11D8081803321F49C
:102900009A2D997EA92E09C0A2FE06C0B394B39455
:1029100004C08A2D867809F0B394A3FC10C0A0FEF1
:1029200006C0B21480F4280C922C9B180DC0B2146F
:1029300058F4B60180E290E076D0B394F8CFB214A8
:1029400018F42B1802C0982C212CA4FE0FC0B6013D
:1029500080E390E068D0A2FE16C0A1FC03C088E727
:1029600090E002C088E590E0B6010CC08A2D867820
:1029700051F0A1FE02C08BE201C080E2A7FC8DE213
:10298000B60190E050D0891430F4B60180E390E0B5
:102990004AD09A94F8CF8A94F301E80DF11D808112
:1029A000B60190E040D08110F6CF222009F44ECE3F
:1029B000B60180E290E037D02A94F7CFF601868105
:1029C000978102C08FEF9FEF2B960FB6F894DEBF72
:1029D0000FBECDBFDF91CF911F910F91FF90EF9070
:1029E000DF90CF90BF90AF909F908F907F906F902F
:1029F0005F904F903F902F900895FC01059061509B
:102A000070400110D8F7809590958E0F9F1F089504
:102A1000FC016150704001900110D8F780959095AD
:102A20008E0F9F1F08950F931F93CF93DF93FB018A
:102A3000238121FD03C08FEF9FEF2CC022FF16C022
:102A400046815781248135814217530744F4A08180
:102A5000B1819D012F5F3F4F318320838C9326816D
:102A600037812F5F3F4F3783268314C08B01EC01E2
:102A7000FB010084F185E02D0995892BE1F6D80151
:102A800016968D919C911797019617969C938E930D
:102A90001697CE01DF91CF911F910F910895FA0102
:102AA000AA27283051F1203181F1E8946F936E7F8D
:102AB0006E5F7F4F8F4F9F4FAF4FB1E03ED0B4E07E
:102AC0003CD0670F781F891F9A1FA11D680F791FBF
:102AD0008A1F911DA11D6A0F711D811D911DA11DD0
:102AE00020D009F468943F912AE0269F11243019E0
:102AF000305D3193DEF6CF010895462F4770405D7B
:102B00004193B3E00FD0C9F7F6CF462F4F70405D29
:102B10004A3318F0495D31FD4052419302D0A9F784
:102B2000EACFB4E0A6959795879577956795BA957E
:102B3000C9F700976105710508959B01AC010A2E44
:102B400006945795479537952795BA95C9F7620F1B
:0E2B5000731F841F951FA01D0895F894FFCFDA
:102B5E000000000200000000E80100000000747296
:102B6E00616E736D697474696E67204D6163726F07
:102B7E00006D6163726F2052656365697665643AB4
:102B8E002025640A0073656E64204D616E75616C5C
:102B9E000053797374656D20284572726F72290027
:102BAE004E6F7420436F6E6E65637465642045725C
:062BBE00726F720D0000B1
:00000001FF
