:100000006DC000008AC0000088C0000086C00000EB
:1000100084C0000082C0000080C000007EC00000DC
:100020007CC000007AC0000078C0000076C00000EC
:1000300074C0000072C0000070C000006EC00000FC
:100040006CC000000C949D16CAC2000066C000007F
:1000500064C0000095C2000028C200005EC000001D
:100060005CC000005AC0000058C0000056C000002C
:1000700054C0000052C0000050C000004EC000003C
:1000800050C20000CEC1000048C0000046C00000C1
:1000900044C000007A113111331135113711391173
:1000A00080112F1182117C113B113D117E114B11DA
:1000B0004F11511153115511841149114D115711FF
:1000C00059115B11B01193119511971199119B1151
:1000D000B4119111B611B2119D119F1111241FBEBF
:1000E000CFEFD0E1DEBFCDBF11E0A0E0B1E0ECE1A9
:1000F000FEE200E00BBF02C007900D92A031B107F5
:10010000D9F72DE0A0E1B1E001C01D92A330B20704
:10011000E1F70E9412120C940C1772CFFC01758348
:100120006483429FC001439F900D529F900D112404
:10013000860F971F97838683518740871386128681
:100140003587248771836083738362830895CF9397
:10015000DF93EC014C855D85888199810E940317AE
:10016000288139818C859D85820F931F998388838F
:100170002E813F818217930720F08C819D81998386
:1001800088838A859B8528853985821793071CF487
:1001900001969B878A87DF91CF910895CF93DF9354
:1001A000FB011082FC0122853385232BF9F09B0192
:1001B000EC016281738144855585C9010E94031752
:1001C0002A813B818C859D85820F931F9B838A8327
:1001D0002E813F818217930721F48C819D819B831F
:1001E0008A838A859B8501979B878A87DF91CF9138
:1001F0000895FC01828593850895E0E2F2E047EEE0
:1002000051E05583448329E132E03783268322E39A
:1002100030E0318720871386128621E030E0358771
:1002200024875183408353834283ECE3F2E04AE125
:1002300052E055834483AFE1B2E0B783A683A5E0E3
:10024000B0E0B187A0871386128635872487518353
:10025000408353834283611526E972078105910526
:1002600001F130F461157B448105910509F127C046
:10027000611521EE72078105910561F06115724CDF
:1002800081409105E1F480E190E09093C500809376
:10029000C4001BC082E290E09093C5008093C4002C
:1002A00014C083E390E09093C5008093C4000DC018
:1002B00087E690E09093C5008093C40006C08FEC61
:1002C00090E09093C5008093C40082E08093C000CA
:1002D0008EE08093C20088E98093C1000895EEE229
:1002E000F2E04AE651E0558344832EEC31E0378357
:1002F000268324E630E0318720871386128621E0AA
:1003000030E0358724875183408353834283EAE575
:10031000F1E04EEC51E055834483A7EEB1E0B783A2
:10032000A683A9E1B0E0B187A0871386128635873E
:1003300024875183408353834283611526E97207E2
:100340008105910501F130F461157B44810591052A
:1003500009F127C0611521EE72078105910561F051
:100360006115724C81409105E1F480E190E0909339
:10037000CD008093CC001BC082E290E09093CD0032
:100380008093CC0014C083E390E09093CD008093E1
:10039000CC000DC087E690E09093CD008093CC0018
:1003A00006C08FEC90E09093CD008093CC0082E06B
:1003B0008093C80086E08093CA0088E98093C900D2
:1003C00008950F931F93CF93DF931F92CDB7DEB79E
:1003D000898309EC10E0F80180818F7D8083BE0164
:1003E0006F5F7F4F8AE591E0B2DEF8018081806225
:1003F00080830F90DF91CF911F910F91089569E154
:1004000072E08EE292E0CADE80911902089581E0E6
:100410002091380230913902121613060CF480E054
:1004200008951F920F920FB60F9211240BB60F92E0
:100430002F933F934F935F936F937F938F939F93EC
:10044000AF93BF93EF93FF93CF93DF931F92CDB7FB
:10045000DEB780916401909165011816190654F475
:10046000BE016F5F7F4F8AE591E098DE89818093BE
:10047000CE0005C0E9ECF0E080818F7D80830F9095
:10048000DF91CF91FF91EF91BF91AF919F918F91AC
:100490007F916F915F914F913F912F910F900BBE84
:1004A0000F900FBE0F901F9018951F920F920FB6CE
:1004B0000F9211240BB60F922F933F934F935F939C
:1004C0006F937F938F939F93AF93BF93EF93FF931C
:1004D00080912A0290912B021816190654F460E1BB
:1004E00071E080E292E05ADE809110018093C600B4
:1004F00005C0E1ECF0E080818F7D8083FF91EF917A
:10050000BF91AF919F918F917F916F915F914F912B
:100510003F912F910F900BBE0F900FBE0F901F9029
:1005200018951F920F920FB60F9211240BB60F92CF
:100530002F933F934F935F936F937F938F939F93EB
:10054000AF93BF93EF93FF938091CE0080931F02F0
:100550006FE172E08EE292E0FADDFF91EF91BF91E0
:10056000AF919F918F917F916F915F914F913F914B
:100570002F910F900BBE0F900FBE0F901F901895EC
:100580001F920F920FB60F9211240BB60F922F935A
:100590003F934F935F936F937F938F939F93AF930B
:1005A000BF93EF93FF938091C60080934A026AE461
:1005B00072E08CE392E0CBDDFF91EF91BF91AF91C0
:1005C0009F918F917F916F915F914F913F912F916B
:1005D0000F900BBE0F900FBE0F901F9018951F929B
:1005E0000F920FB60F9211240BB60F922F933F93D9
:1005F0004F935F936F937F938F939F93AF93BF932B
:10060000CF93EF93FF93EDEEF0E0C0818091EC008B
:10061000682F70E0807F8083729562956F70672786
:100620007F7067278091EE008F7DC1F52091F200E9
:100630008091F300ECE1F1E022952695277090E09F
:10064000880F991F880F991F880F991F822B9183FC
:1006500080838091EF008F70828390E0009759F043
:10066000EFE1F1E0815E9E4FAAEFB0E02C91219383
:10067000E817F907D9F71092EE0080E88093EF00B1
:10068000FB01EE0FFF1FE45BFD4F0190F081E02DB9
:100690008CE191E00995C093ED00D8C08091EE0007
:1006A0008F7B09F057C0FB01EE0FFF1FE45BFD4F8E
:1006B0000190F081E02D8CE191E0099580911E017F
:1006C000882309F440C0ECE1F1E0808191819695A6
:1006D000879596958795969587958093F300808169
:1006E0008295880F807E8093F2001092F100109224
:1006F000F0008281893019F081110DC01CC0EFE13A
:10070000F1E027E231E0AAEFB0E081918C93E217AB
:10071000F307D9F710C080E02CE131E0AAEFB0E098
:10072000E82FF0E0E45EFE4F93819C938F5FF90128
:1007300092818917A8F31092EE0080911E01805CCF
:100740008093EF0004C01092EE001092EF00C0936F
:10075000ED007CC08091EE0090E08F77892BC1F591
:100760002091F2008091F300ECE1F1E022952695D2
:10077000277090E0880F991F880F991F880F991F85
:10078000822B918380838091EF008F70828390E031
:10079000009759F0EFE1F1E0815E9E4FAAEFB0E0E3
:1007A0002C9121938E179F07D9F71092EE0080E8C5
:1007B0008093EF00FB01EE0FFF1FE45BFD4F019004
:1007C000F081E02D8CE191E00995C093ED003EC0F1
:1007D0008091EE008F75C1F52091F2008091F300B9
:1007E000ECE1F1E022952695277090E0880F991FA3
:1007F000880F991F880F991F822B91838083809186
:10080000EF008F70828390E0009759F0EFE1F1E004
:10081000815E9E4FAAEFB0E02C912193E817F90773
:10082000D9F71092EE0080E88093EF00FB01EE0F05
:10083000FF1FE45BFD4F0190F081E02D8CE191E022
:100840000995C093ED0002C08091EE00FF91EF91F9
:10085000CF91BF91AF919F918F917F916F915F9158
:100860004F913F912F910F900BBE0F900FBE0F90A5
:100870001F901895CF93DF93C82FE82FF0E0EE0F6D
:10088000FF1FE45BFD4F0190F081E02D682F81E1B7
:1008900091E00995C295C07FC093ED00809113014E
:1008A000882309F45CC01092EE001092EF008F3F95
:1008B000C1F1E1E1F1E0808191819695879596956E
:1008C0008795969587958093F30080818295880F10
:1008D000807E8093F2001092F1001092F0008281ED
:1008E000893019F081110DC033C0E4E1F1E02CE151
:1008F00031E0AAEFB0E081918C93E217F307D9F7CA
:1009000027C080E0C1E1D1E0AAEFB0E0E82FF0E03D
:10091000EF5EFE4F93819C938F5F9A818917B0F3AE
:1009200017C0E1E1F1E080819181969587959695D8
:100930008795969587958093F30080818295880F9F
:10094000807E8093F2001092F10084E08093F000AA
:1009500080911301805C8093EF0081E001C080E012
:10096000DF91CF910895CF93DF93FB0120813181F7
:100970002115384008F098959281993008F09895A3
:100980008F3008F098958295807F8093ED0080915C
:10099000EF00807C21F08091EE0086FF49C010922C
:1009A000EE001092EF0082818F3F39F180819181BA
:1009B0009695879596958795969587958093F3005C
:1009C00080818295880F807E8093F2001092F100E2
:1009D0001092F0008281882329F1DF01139620E034
:1009E00030E0CAEFD0E08D9188832F5F3F4F828146
:1009F00090E028173907B8F315C08081918196954A
:100A0000879596958795969587958093F300808135
:100A10008295880F807E8093F2001092F10084E02E
:100A20008093F0008281805C8093EF0081E001C0C0
:100A300080E0DF91CF9108958F3008F06DC0E82FEE
:100A4000F0E0EE0FFF1FE45BFD4F31832083982F12
:100A50009295907F9093ED00232BD9F41092EE00A5
:100A60001092EF0021E030E0A90102C0440F551FB1
:100A70008A95E2F7CA01EEEDF0E0208180958223AD
:100A80008083EFEDF0E0808190958923808380E082
:100A900008959091EF00907C09F040C01092EE0014
:100AA000EFEEF0E010821092EC009B013695279556
:100AB00036952795369527952093F3006295660F16
:100AC000607E6093F2009A013695279536952795BA
:100AD000369527952093F7004295440F407E40932A
:100AE000F6001092F5001092F40090E8908321E057
:100AF00030E0A90102C0440F551F8A95E2F7CA01F0
:100B0000EEEDF0E02081822B8083EFEDF0E080813C
:100B1000892B808380E0089581E0089581E0089525
:100B20008F3008F049C0E82FF0E0EE0FFF1FE45BC4
:100B3000FD4F31832083982F9295907F9093ED0005
:100B4000232BD9F41092EE001092EF0021E030E058
:100B5000A90102C0440F551F8A95E2F7CA01EEEDC4
:100B6000F0E02081809582238083EFEDF0E08081AA
:100B700090958923808380E008959091EF00907C88
:100B8000E9F41092EE001092EF001092EC0021E0D8
:100B900030E0A90102C0440F551F8A95E2F7CA014F
:100BA000EEEDF0E02081822B8083EFEDF0E080819C
:100BB000892B808381E0089581E0089580E0089585
:100BC000CF93DF9382E08093E2008CE08093E30098
:100BD00087E38093E40080E0CDEED0E0AEEEB0E0BD
:100BE000EFEEF0E0982F9295907F98831C92108200
:100BF0008F5F8F30B9F7E8EDF0E08081826080830D
:100C000080EB8093DB00DF91CF910895880F991FCF
:100C1000E0919104F0919204E80FF91F71836083D1
:100C2000FC01E15CFA4F21E030E03183208308953C
:100C3000880F991FE0919104F0919204E80FF91F39
:100C4000808191810895FC01EE0FFF1FE15CFA4F56
:100C500020813181232B49F0880F991FFC01E15C31
:100C6000FA4F1182108281E0089580E00895FC011E
:100C7000EC5AFF4F20813181253231058CF53497B4
:100C80000190F081E02DDF01AA0FBB1FA80FB91F53
:100C90006D937C93BF016F5F7F4F68327105D0F415
:100CA000660F771FDC01A60FB71F4D935C9332963A
:100CB000E832F10510F0E0E0F0E0DC01A05BBF4FAE
:100CC000ED93FC93FC01EC5AFF4F2E5F3F4F3183B5
:100CD00020830895FC0151834083E1E0F0E0EDCFF3
:100CE0000895CF93DF93EC0180912D0190912E0117
:100CF000019709F073C08A818850823008F046C09D
:100D00006B8170E0762F66278C81680F711D809152
:100D10005305909154056817790780F44D8150E090
:100D2000542F44278E81480F511D89EE94E09FDF98
:100D300081E090E090932A01809329016F8170E017
:100D4000762F66278885680F711D809153059091D5
:100D500054056817790780F4498550E0542F4427DB
:100D60008A85480F511D89EE94E081DF81E090E093
:100D700090932A0180932901488159814F71552709
:100D800060E070E089EE94E072DF88C06B8170E013
:100D9000762F66278C81680F711D80915305909185
:100DA00054056817790780F44D8150E0542F44278B
:100DB0008E81480F511D89EE94E059DF81E090E06B
:100DC00090932A0180932901488159814F715527B9
:100DD00060E070E089EE94E04ADF60C0688179816C
:100DE0006F71772780E090E011DF8A818850823030
:100DF000C8F58B8190E0982F88272C81820F911D58
:100E000020915305309154058217930770F46D813A
:100E100070E0762F66272E81620F711DF7DE81E06C
:100E200090E090932A01809329018F8190E0982F80
:100E300088272885820F911D2091530530915405F4
:100E40008217930758F5698570E0762F66272A8503
:100E5000620F711DDBDE81E090E090932A018093A8
:100E600029011CC08B8190E0982F88272C81820F4C
:100E7000911D20915305309154058217930770F40A
:100E80006D8170E0762F66272E81620F711DBEDEA8
:100E900081E090E090932A0180932901DF91CF9126
:100EA0000895AB01BC018BE394E0E1CE08950F936C
:100EB0001F93CF93DF93FC01E854FF4F0190F08123
:100EC000E02DE735F1050CF055C0DC01AC54BF4F07
:100ED0000D90BC91A02DED01CC0FDD1FC80FD91FC7
:100EE00079836883BD016F5F7F4F6A35710588F52F
:100EF000EC01CC54DF4F7983688324968F010F5F18
:100F00001F4F19830883660F771FEC01C60FD71F89
:100F100059834883AD014E5F5F4F4A35510520F537
:100F2000440F551FEC01C40FD51F39832883139636
:100F3000AA35B10510F0A0E0B0E0EC01CC54DF4FD1
:100F4000B983A883DC01A854BF4F3396ED93FC937B
:100F500011C0DC0111965C934E9313963C932E9333
:100F60001297A2E0B0E0E9CFDC012D933C93A1E021
:100F7000B0E0E3CFDF91CF911F910F910895FC0175
:100F8000EC5AFF4F4081518114161506E4F4329754
:100F900020813181F901EE0FFF1FE80FF91F6081F9
:100FA00071812F5F3F4F2832310510F020E030E093
:100FB000FC01EE5AFF4F3183208332964150510994
:100FC0005183408302C060E070E0CB010895CF926E
:100FD000DF92EF92FF920F931F93CF93DF93809155
:100FE000290190912A010097E1F110922A011092B3
:100FF0002901C0903D05D0903E05C114D10421F0D7
:101000007CF481E090E02DC031E020E080912D0162
:1010100090912E01892B09F030E0832F922F21C06F
:10102000EE24E394F12C89EE94E0A9DFEC01CC0FDF
:10103000DD1F00919104109192040C0F1D1F89EE89
:1010400094E09DDFF80191838083C15CDA4FF982DF
:10105000E882F2E0CF1AD1081C141D0424F381E0C9
:1010600090E0DF91CF911F910F91FF90EF90DF9073
:10107000CF900895AF92BF92CF92DF92EF92FF92FE
:101080000F931F93CF93DF936C01A0902203B09036
:101090002303E0908F04F0909004F594E7941E14DD
:1010A0001F049CF4C0E0D0E08BE394E068DF8C0187
:1010B0008BE394E064DF9C01A801B6018AE692E02C
:1010C000F6DE2196EC16FD0679F782E0A816B1044B
:1010D00010F48DE0CFDBDF91CF911F910F91FF9046
:1010E000EF90DF90CF90BF90AF900895FC01E8544F
:1010F000FF4F4081518114161506E4F43297208188
:101100003181F901EE0FFF1FE80FF91F6081718136
:101110002F5F3F4F2A35310510F020E030E0FC0111
:10112000EA54FF4F31832083329641505109518355
:10113000408302C060E070E0CB010895FC01E854F8
:10114000FF4F20813181121613065CF43297019013
:10115000F081E02DEE0FFF1FE80FF91F80819181D4
:10116000089580E090E00895FC01E854FF4F11825B
:101170001082349711821082329611821082672B6E
:1011800029F024EBFC0111922A95E9F70895909338
:1011900092048093910440933A04709354056093B1
:1011A000530580E4489FB001112421E736E040EE6A
:1011B00057E085E041DC882309F0989523E039E089
:1011C0004FEF57E06FEF77E08DE0AADC8BE291E024
:1011D0000E9482151092900410928F0410928C0439
:1011E00010928B0410928E0410928D0460E070E0D7
:1011F0008AE692E0B9CF089544E064E170E086E2C7
:1012000094E0C5CF08950F931F93CF93DF93209160
:101210002203309123032115310509F4A5C0EC0107
:101220002730310508F43CC08AE692E05FDF8C018C
:101230000024969587950794969587950794982FFF
:10124000802D0496998388838AE692E04FDF9B8302
:101250008C838AE692E04ADF9D838E838AE692E061
:101260006DDF08171907C9F48AE692E03FDF8AE6C6
:1012700092E03CDF9F8388878AE692E037DF998798
:101280008A878AE692E05ADF0817190719F488E07E
:101290008A8370C089E08A836DC084E08A836AC0D3
:1012A0002630310599F58AE692E020DF8C01002492
:1012B000969587950794969587950794982F802DF6
:1012C0000496998388838AE692E010DF9B838C835F
:1012D0008AE692E00BDF9D838E838AE692E02EDF22
:1012E0000817190781F48AE692E000DF8AE692E0A7
:1012F000FDDE9F8388878AE692E0F8DE99878A87F9
:1013000089E08A8337C084E08A8334C02330310582
:10131000E1F48AE692E0EADE002496958795079448
:10132000969587950794982F802D049699838883A6
:1013300084E08A838AE692E0D9DE9B838C838AE606
:1013400092E0D4DE9D838E8315C080912701909119
:1013500028010196909328018093270161E070E0B5
:101360008AE692E001DF06C021E030E0FC01318333
:1013700020831282DF91CF911F910F9108950F93D7
:101380001F9307E012E02FEF31E041EE51E064E0FF
:1013900089E79BE010D31F910F9108950F931F933E
:1013A00010923C011092400110923F0140E050E049
:1013B00061E089E79BE087D361E089E79BE099D30F
:1013C00088E090E040DC64E070E080E090E069DD7F
:1013D00060E070E088E090E064DD60E070E089E06B
:1013E00090E05FDD85E090E045DE60E070E088E061
:1013F00090E00CDC00E010E020E030E040E050E065
:1014000060E070E080E090E00E9406131F910F9171
:10141000089562E089E79BE0F4D290933B018093CA
:101420003A0161E089E79BE0ECD290933901809327
:10143000380163E089E79BE0E4D290933501809323
:10144000340164E089E79BE0DCD29093370180931C
:10145000360165E089E79BE0D4D290933301809315
:10146000320108950F931F9389E79BE0DDD287E057
:101470004ED7809100018130B1F138F0823009F40B
:10148000FFC0833009F455C17CC189E79BE0CCD211
:1014900085E595E00E94E715882309F180913C01DC
:1014A000823099F444E050E060E089E79BE00BD3A0
:1014B00040913F015091400168E089E79BE003D3F0
:1014C00061E089E79BE015D30AC044E050E060E0AA
:1014D00089E79BE0F8D261E089E79BE00AD383E0EB
:1014E000809300014EC168E089E79BE097D280932A
:1014F000A20A8823B1F068E089E79BE082D2892BB9
:1015000081F081E080933C0168E089E79BE079D23B
:101510009093400180933F0190933101809330017B
:1015200022C068E089E79BE06CD2892BE1F48091CE
:10153000A20A8823C1F08CE0EAD630DF10923C0189
:1015400068E089E79BE05DD29093400180933F0182
:10155000109231011092300140E050E06FE070E0F5
:1015600080E090E0FED580913C01823009F036C0E9
:1015700080932F0188E090E066DB882359F180E0BA
:1015800090E056DB059731F580912F01833039F0DB
:1015900042E350E060E070E082E390E0E2D588E072
:1015A00090E046DB892BB1F410923C0140E050E022
:1015B00061E089E79BE087D261E089E79BE099D20F
:1015C00060E08BE03FD640E050E06FE070E080E00C
:1015D00090E0C7D561E08BE035D64EC0813009F090
:1015E00048C082E094D620E030E042E360E072E35D
:1015F00080E0F8D588E090E026DB8823D9F080E011
:1016000090E016DB0597B1F488E090E011DB2091C3
:101610003F01309140018217930761F4AC0161E012
:1016200089E79BE050D261E089E79BE062D282E0EB
:1016300080933C0185E695E00E94E7158823E1F060
:1016400086E065D664E070E080E090E02ADC60919E
:101650003F017091400188E090E023DC60913D0102
:1016600070913E0189E090E01CDC85E090E002DDB5
:1016700003C060E08BE0E6D582E08093000181C08A
:1016800089E79BE0D1D18DE895E00E94E71588239A
:1016900009F477C09CDC83E03AD660E089E79BE000
:1016A000BDD1811106C061E089E79BE0B7D18823F5
:1016B00039F082EF99E00E94CD1560E085E0C2D557
:1016C000A8DE82EF99E00E944316811119C01092A2
:1016D000000184E01CD680913C018150823008F4E6
:1016E00050C080912F0181114CC040E050E06FE06C
:1016F00070E080E090E035D581E080932F0141C01B
:1017000020E030E042E360E072E380E06BD51092CD
:101710002F0185E695E00E94E715882391F13EDED2
:101720001092400110923F0110923C0185E0EFD5EC
:1017300028C082EF99E00E94431681111FC089EDF5
:101740009AE00E94E7158823C9F080913C0181113D
:1017500015C0009132011091330120913601309172
:1017600037014091340150913501609138017091F9
:10177000390180913A0190913B0148D781E08093F3
:1017800000011F910F9108950F931F9300E117E23D
:1017900020E030E040E050E060E070E082E49CE077
:1017A0000E94BF1504EF11E020E030E040E050E07F
:1017B00060E070E085E695E00E94BF1520E030E033
:1017C00040E050E060E070E085E595E00E94BF15E4
:1017D00005E010E020E030E040E050E060E070E044
:1017E0008DE895E00E94BF1520E030E040E050E039
:1017F00060E070E08EEC98E00E94BF1501E020E010
:1018000030E040E050E060E070E08DE795E00E945D
:10181000BF1500ED17E020E030E040E050E060E070
:1018200070E082EF99E00E94BF1502E310E020E033
:1018300030E040E050E060E070E080EE99E00E942F
:10184000BF1520E030E040E050E060E070E080ED67
:1018500099E00E94BF1520E030E040E050E060E0F9
:1018600070E085EA9AE00E94BF1520E030E040E099
:1018700050E060E070E08CE29CE00E94BF1520E048
:1018800030E040E050E060E070E089ED9AE00E94D6
:10189000BF151F910F910895FC0115AE14AE17AE40
:1018A00016AEE05CFF4F118210820895FC0184ADFA
:1018B00095AD089521E0FC0184AD95ADCC9709F07C
:1018C00020E0822F089521E0FC0184AD95AD892BA5
:1018D00009F020E0822F0895DC01DC962D913C91E7
:1018E000DD972C333105D9F0A05CBF4F4D915C9151
:1018F0001197FA013196ED93FC93DC01A40FB51F0B
:101900006C932F5F3F4FDC01DD963C932E93DC9769
:10191000FC9729F4FC01E05CFF4F118210820895CE
:10192000FC0184AD95AD019795AF84AF26AD37AD81
:10193000DF01A20FB31F8C912F5F3F4F2C33310576
:1019400019F037AF26AF089517AE16AE0895FC0113
:1019500026AD37AD620F731F6C33710510F06C53F9
:101960007109FC01E60FF71F80810895FC0115AE97
:1019700014AE17AE16AEE05CFF4F118210820895D0
:101980006623B9F0FC01615070E06F5F7F4F680F14
:10199000791F80E04CE8219198E0382F3227869516
:1019A00030FD842726959150C1F7E617F70799F780
:1019B000089580E008950F931F93CF93DF93EC0178
:1019C000FC0161934996DC01119211921D92E81776
:1019D000F907D1F7FE01E755FF4F51834083329657
:1019E00031832083329611830083CE01859654DFA4
:1019F000CE0189599F4F50DFDF91CF911F910F91F9
:101A0000089570E0FC01E60FF71F118E660F771F37
:101A1000FC01E60FF71F818192810895FC01E60F1A
:101A2000F11D818D118E0895CF92DF92EF92FF927A
:101A30000F931F93CF93DF937C01EC01CB59DF4FC2
:101A40006C0181E6C80ED11C87010B5D1F4F1DC0C4
:101A50000E94FF018093190228813981F701E20F6A
:101A6000F31F85A32F5F3F4F2C33310519F03983C6
:101A7000288302C019821882F601808191818D33FA
:101A8000910518F40196918380830E9407028111C9
:101A900004C0C8010FDF8823D9F2A701475E5F4F5A
:101AA000B7016F5F7F4FF70100812CE030E0C70185
:101AB0008596C5D2DF91CF911F910F91FF90EF9046
:101AC000DF90CF9008950F931F93CF93DF93042F50
:101AD000152FEC01C959DF4FCE01FEDE602FCE017C
:101AE000FBDE612FCE01F8DEDF91CF911F910F91C8
:101AF00008956F927F928F929F92AF92BF92CF92F2
:101B0000DF92EF92FF920F931F93CF93DF93CDB7A6
:101B1000DEB7EC970FB6F894DEBF0FBECDBF4C0119
:101B2000D62E7C0187E6E80EF11CC701BFDE3C0122
:101B3000892B09F43EC0840107551F4FD801ED9150
:101B4000FC9186E00995D801ED91FC9185E8099515
:101B5000D801ED91FC918D2D0995D801ED91FC9165
:101B6000D4018C910995D801ED91FC91862D0995B0
:101B70008E010F5F1F4F5801A60CB71C6401B9EA14
:101B8000CB0ED11CC701CCDEF80181938F01D601A9
:101B9000ED91FC9109950A151B05A1F7F401E75594
:101BA000FF4F00811181662DCE010196E9DEF8011B
:101BB0000995EC960FB6F894DEBF0FBECDBFDF914E
:101BC000CF911F910F91FF90EF90DF90CF90BF903A
:101BD000AF909F908F907F906F9008950F93909308
:101BE0004E0180934D0170934C0160934B015093D3
:101BF0004A014093490130934801209347010093E3
:101C0000460110924501109244011092430181E077
:101C100090E090934201809341010F91089580914B
:101C20004D0190914E0142DE60914301709144015B
:101C30006817790738F082E090E090934201809332
:101C40004101089580914D0190914E0180DE8630D2
:101C500039F083E090E09093420180934101089530
:101C600080914301909144010196909344018093A7
:101C70004301089580914D0190914E0117DE6091CE
:101C80004301709144016817790738F082E090E0D1
:101C90009093420180934101089580914D0190916C
:101CA0004E0155DE853839F084E090E09093420192
:101CB00080934101089580914301909144010196E0
:101CC0009093440180934301089580914D01909138
:101CD0004E01ECDD60914301709144016817790772
:101CE00038F082E090E090934201809341010895A2
:101CF00080914D0190914E012ADE80914301909197
:101D0000440101969093440180934301089580918A
:101D10004D0190914E01CADD6091430170914401E3
:101D20006817790738F082E090E090934201809341
:101D30004101089580914D0190914E0108DE9091EE
:101D40004601891739F085E090E090934201809335
:101D5000410108958091430190914401019690932F
:101D6000440180934301089580914D0190914E016B
:101D70009DDD60914301709144016817790738F047
:101D800082E090E090934201809341010895809118
:101D90004D0190914E01DBDD809345018D3350F470
:101DA0009BEA899F912D11249695292F220F920F3E
:101DB000891739F086E090E09093420180934101C9
:101DC00008958091430190914401019690934401BC
:101DD000809343010895CF93DF93C0914301D09145
:101DE0004401219780914501C80FD11D80914D017B
:101DF00090914E015BDDC817D90738F082E090E082
:101E000090934201809341010CC020914501809143
:101E1000430190914401820F911D9093440180935E
:101E20004301DF91CF910895EF92FF920F931F939B
:101E3000CF93DF93CDB7DEB7EC970FB6F894DEBF44
:101E40000FBECDBF80914D0190914E012FDD2091AD
:101E50004301309144012817390728F46091450166
:101E6000611108C020C082E090E09093420180930D
:101E7000410138C0CE0101967C0100E010E0B801BC
:101E80006B5F7F4F80914D0190914E0160DDF701B6
:101E900081937F010F5F1F4F60914501862F90E076
:101EA0000817190764F3CE0101966ADD182F6091B7
:101EB00043017091440180914D0190914E0147DDA5
:101EC000181739F087E090E0909342018093410128
:101ED00009C080914301909144010196909344017F
:101EE00080934301EC960FB6F894DEBF0FBECDBFD2
:101EF000DF91CF911F910F91FF90EF900895CF93B5
:101F0000DF93EC012197181619063CF480914D01DE
:101F100090914E0105DD2197C8F7DF91CF9108958B
:101F20007EDE8091410190914201019721F5A2DE70
:101F300080914101909142010197E9F4E8DE80919E
:101F40004101909142010197B1F4BFDE80914101BE
:101F500090914201019779F407DF809141019091BE
:101F60004201019741F437DF809141019091420194
:101F7000019709F459CF0895DF92EF92FF920F93E2
:101F80001F93CF93DF930091450110E00B5F1F4F2C
:101F9000063011050CF440C0C5E0D0E0DD24D39438
:101FA000BE0180914D0190914E01D1DCF82EBE0111
:101FB0006F5F7F4F80914D0190914E01C8DCE82EFC
:101FC000BE016E5F7F4F80914D0190914E01BFDC4D
:101FD0004F2D50E02091470130914801421753079F
:101FE000BCF49A01440F551FE0914B01F0914C0154
:101FF000E40FF51F4E2D50E0BA01782B71836083FA
:102000008091490190914A01FC01E20FF31FD082B7
:102010002396C017D10724F2C0914501D0E0259640
:1020200080914D0190914E017BDC2197C8F7DF91A3
:10203000CF911F910F91FF90EF90DF9008958F92B5
:102040009F92AF92BF92CF92DF92EF92FF920F9347
:10205000CF934C015B016A017901C02F0C2F9701CE
:10206000A601B501C401BADD80914D0190914E01E8
:102070002ADC811124C054DF8091410190914201FA
:102080008130910519F0029729F013C075DF88E0BF
:102090003ED1E4CF80914D0190914E010BDC88231D
:1020A00029F080914D0190914E0160DC89E02FD1A3
:1020B00006C081E090E023DF8AE029D1CFCFCF9125
:1020C0000F91FF90EF90DF90CF90BF90AF909F90D7
:1020D0008F900895CF9360E072EC81E090E00E94D1
:1020E0006F0160E072EC81E090E00E94FD001FD67D
:1020F0004BDB8FE782B988EF81BB9FEF91B980BB43
:102100005AD07894C1E061E08C2F9CD02FEF80E70B
:1021100092E0215080409040E1F700C00000CF5F86
:10212000CD3089F72FEF83ED90E321508040904030
:10213000E1F700C00000C1E060E08C2F83D02FEFFA
:1021400080E792E0215080409040E1F700C000001D
:10215000CF5FCD3089F70E94E0059CD14DD8CF915B
:102160000895CF93DF93EAE7FCE0818360834283A5
:10217000C0E0D0E045E0BE018AE79CE0FAD046E04E
:10218000BE018AE79CE0F5D02196C930D10591F7D0
:10219000C1E0D0E043E0BE018AE79CE0EAD044E041
:1021A000BE018AE79CE0E5D02196C931D10591F7BF
:1021B000DF91CF9108950F931F9308EE13E020E075
:1021C00030E040E050E060E070E082E59CE0D7D491
:1021D00040E050E060E070E080E090E0C2DF1F91FE
:1021E0000F910895EF92FF920F931F93CF93DF9378
:1021F000162FE72E082FC22FF32ED42F82E59CE056
:10220000E6D48823C1F080914F01882351F0402FFC
:1022100050E0612F70E08E2D90E0A3DF10924F010F
:102220000AC04D2F50E06C2F70E08F2D90E099DFA9
:1022300081E080934F01DF91CF911F910F91FF902B
:10224000EF900895962F61111AC0482F50E0FA01BF
:102250003197EC30F10588F5E65BFF4FADC588E0BE
:1022600040C080E434C081E03CC084E03AC080E1FA
:1022700038C080E436C080E22AC088E028C0482FF9
:1022800050E0FA013197EC30F105B8F4EA5AFF4F0B
:1022900093C587EF26C08FEB1AC08DEF22C08EEF5B
:1022A00020C08BEF1EC08FEE1CC08FEB1AC08FE7D3
:1022B0000EC08FED0CC087EF0AC08A3028F483303F
:1022C00078F4813018F102C08D3000F580E02FB134
:1022D000911103C0822B81BB0895822381BB089595
:1022E00080E020B1911103C0822B82B9089582232E
:1022F00082B9089580E1EBCF80E8E9CF8FEEE7CF98
:1023000080E2EFCF82E0EDCF8FEDEBCF0895482F45
:1023100050E0FA013197EC30F10598F4EE59FF4F97
:102320004BC588E01BC080E416C081E017C084E084
:1023300015C080E113C080E411C080E20CC088E0C9
:102340000AC08A3028F4833040F4813088F002C01B
:102350008D3070F480E08FB9089580E080B90895E1
:1023600080E1F9CF80E8F7CF80E2F8CF82E0F6CFC6
:1023700008951F93CF93DF9321E030E002C0220F36
:10238000331F4A95E2F7FB01EE0FFF1FE60FF71F21
:10239000AC014D5F5F4F5093800C40937F0C909346
:1023A000820C8093810C37B1322B37B938B1722F40
:1023B0007095732358B1522B1FB7F8949F01215089
:1023C0003109EF2B21F1A0917F0CB091800CD091BD
:1023D000810CC091820CA817B90719F4ED2FFC2FBE
:1023E00001C0FC01CF010196408168E058B90000AE
:1023F00000C047FF78B9440F000000C000C000C013
:1024000078B900C06A9591F72150310920F71FBFB4
:102410008FEA94E00197F1F700C00000DF91CF91BF
:102420001F91089557DE0E94BF0908EE13E020E0D7
:1024300030E040E050E060E070E083E99CE09FD352
:1024400004E610E020E030E040E050E060E070E0C2
:1024500083EA9CE094D320E030E040E050E060E08C
:1024600070E08CE29CE08BD320E030E040E050E074
:1024700060E070E083E89CE082D340E050E060E000
:1024800070E084E690E06DDE83E99CE0A0D30E94DA
:10249000320AFACF6F927F928F929F92AF92BF9241
:1024A000CF92DF92EF92FF920F931F93CF93DF9320
:1024B000CDB7DEB768970FB6F894DEBF0FBECDBFBD
:1024C0008FEF90E09093780B8093770B0F2EF3EBC8
:1024D000EF2EFCE0FF2EF02D0F2EF3E0CF2EFDE0CF
:1024E000DF2EF02D02E310E020E030E040E050E08D
:1024F00060E070E0C70143D380E1E80EF11CEC140A
:10250000FD0481F70F2EF6E06F2EF02DFE0173967D
:10251000DF01862D1D928A95E9F7772473947F92C7
:102520008B889C88AD88BE88CF88D88C0F2EF0E130
:10253000EF2EF7E2FF2EF02D00E81CE020E047E050
:102540006DE78CEA99E08DD1FE013D96DF01862D85
:102550001D928A95E9F77F928D849E84AF84B88816
:10256000C988DA8821E046E06EE789EB9AE079D104
:1025700086E0E1E0F1E0DE01179601900D928A9588
:10258000E1F71F928F809884A984BA84CB84DC847D
:102590000F2EF8E8EF2EF3E1FF2EF02D23E045E0BB
:1025A0006CE782E09AE05DD1FE013196DF011D9279
:1025B0006A94E9F77F9289809A80AB80BC80CD8055
:1025C000DE800F2EF0E1EF2EF7E2FF2EF02D22E05D
:1025D00044E06FE789E699E044D10F900F900F90A7
:1025E0000F9068960FB6F894DEBF0FBECDBFDF9197
:1025F000CF911F910F91FF90EF90DF90CF90BF9000
:10260000AF909F908F907F906F9008959F92AF9220
:10261000BF92CF92DF92EF92FF920F931F93CF93CF
:10262000DF93E5E7F5E091838083738362833583ED
:102630002483578346830F2EFDE6EF2EFBE0FF2E0B
:10264000F02D8F01C0E0D0E00F2EF2E39F2EF02D91
:1026500057016801F70120813181F8018081918162
:102660002817390729F483EC9CE0B1D28823B9F10B
:10267000F60120813181C901332324F48827992769
:10268000821B930B40970CF1209751F44EEC4203C0
:10269000B001439F700D11248CEA99E053D10BC017
:1026A000C130D10541F4929EB001939E700D11246A
:1026B00089EB9AE047D1F60180819181F501918300
:1026C000808383EC9CE069D20AC060E070E08CEA11
:1026D00099E038D160E070E089EB9AE033D121963F
:1026E000F2E0EF0EF11C0E5F1F4FC230D10509F072
:1026F000AFCF2091730B3091740B80917B0590913B
:102700007C052817390729F483EE9CE060D28823E2
:1027100079F180917B0590917C058031910554F091
:1027200028E2289FB001299F700D112482E09AE0D1
:1027300079D113C0813F2FEF920754F427E3289FEC
:10274000B001299F700D112482E09AE06BD105C081
:1027500060E070E082E09AE065D180917B05909125
:102760007C059093740B8093730B83EE9CE015D2E1
:102770002091710B3091720B8091790590917A05BF
:102780002817390729F483ED9CE021D2882341F1F1
:102790008091790590917A059C01992324F4222750
:1027A0003327281B390B2031310554F022E3289FB1
:1027B000B001299F700D112489E699E0C3D005C0AE
:1027C00060E070E089E699E0BDD080917905909154
:1027D0007A059093720B8093710B83ED9CE0DDD1B1
:1027E000DF91CF911F910F91FF90EF90DF90CF90ED
:1027F000BF90AF909F900895623019F128F466233E
:1028000041F0613071F00895633099F0643009F15E
:102810000895BC016D5F7F4F8EEB99E00C94A7008B
:102820000895BC016D5F7F4F8BEC9AE00C94A7007C
:102830000895BC016D5F7F4F84E19AE00C94A7007E
:102840000895BC016D5F7F4F8BE799E00C94A70062
:102850000895BC016D5F7F4F8EE999E00C94A7004D
:1028600008956F927F928F929F92AF92BF92CF9274
:10287000DF92EF92FF920F931F93CF93DF9300D0DD
:1028800000D000D0CDB7DEB73C0189829A82AB82FE
:10289000BC82CD82DE82FC0160834183228314836B
:1028A0000383F682E58286E0FE013196D3011C9611
:1028B00001900D928A95E1F78F89F301838781E07A
:1028C00090E002C0880F991F4A95E2F74091770B7C
:1028D0005091780B842B952B9093780B8093770BEA
:1028E000F0E22F9FB00111246351754F28E030E0D2
:1028F00044E050E0C30142960E948E00F3016081E3
:1029000070E060587A4F2CEF33E14FEF57E082814F
:102910000E941C05882309F0989526960FB6F89416
:10292000DEBF0FBECDBFDF91CF911F910F91FF9002
:10293000EF90DF90CF90BF90AF909F908F907F905F
:102940006F900895CF92DF92EF92FF920F931F93B3
:10295000CF93DF93CDB7DEB768970FB6F894DEBF9D
:102960000FBECDBF61382CE0720714F060E87CE048
:10297000FC012081298740E050E35B874A871C8661
:10298000C12CD12C76016894C2F8CD86DE86EF8604
:10299000F88A298B20E033E33B8B2A8B1C8AAB011E
:1029A0006038734F14F440E853EF052E000C660BAB
:1029B000770B4D8B5E8B6F8B788F8C010E5E1F4F6C
:1029C00006C0BE016F5F7F4FC8010E94CE00C801E4
:1029D0000E94F90018161906A4F329853A854B853B
:1029E0005C856D857E858F85988990D08823A9F335
:1029F00029893A894B895C896D897E898F89988D6F
:102A000085D08823A9F368960FB6F894DEBF0FBE71
:102A1000CDBFDF91CF911F910F91FF90EF90DF908D
:102A2000CF900895EF92FF920F931F93CF93DF9370
:102A3000CDB7DEB768970FB6F894DEBF0FBECDBF37
:102A40008C01E62EF72E7EDF8E2D9F2D893823E117
:102A5000920714F088E893E1F8012081298740E08B
:102A600050E35B874A871C8644E050E060E070E0FA
:102A70004D875E876F87788B298B20E032E33B8B15
:102A80002A8B1C8A8837FCEE9F0714F488E79CEE9B
:102A9000092E000CAA0BBB0B8D8B9E8BAF8BB88FB6
:102AA0000E5E1F4F06C0BE016F5F7F4FC8010E94C0
:102AB000CE00C8010E94F90018161906A4F3298552
:102AC0003A854B855C856D857E858F8598891ED07E
:102AD0008823A9F329893A894B895C896D897E8984
:102AE0008F89988D13D08823A9F368960FB6F89430
:102AF000DEBF0FBECDBFDF91CF911F910F91FF9031
:102B0000EF900895FC011182108208951F93CF93D6
:102B1000DF93CDB7DEB763970FB6F894DEBF0FBE75
:102B2000CDBF132F5F87798B762F6989582F30E0BF
:102B30003A5F3A83298388E08B83E7E0F1E0DE01A6
:102B4000149601900D928A95E1F783E28C831D83A0
:102B50004E838F858F83788769875A879B87BE01CD
:102B60006F5F7F4F8EE00E94B30463960FB6F894B8
:102B7000DEBF0FBECDBFDF91CF911F9108950F93A0
:102B80001F93FC0100831183228333834483558385
:102B9000668377831F910F910895FC017091500116
:102BA0006091510150915201409153013091540173
:102BB000209155019091560180915701708761874E
:102BC00052874387348725879687878708956F9232
:102BD0007F928F929F92AF92BF92CF92DF92EF92AD
:102BE000FF920F931F93CF93DF93FC0160905001EE
:102BF000709051018090520190905301D0915401F6
:102C0000C0915501B0915601A091570120853185A1
:102C1000428553856485758586859785A080B180BA
:102C2000C280D380E480F58006811781CED0A22EA9
:102C3000B32EC42ED52EE62EF72E082F192F262DB3
:102C4000372D482D592D6D2F7C2F8B2F9A2FD2D0B9
:102C500050F06086718682869386D487C587B68752
:102C6000A78781E001C080E0DF91CF911F910F9194
:102C7000FF90EF90DF90CF90BF90AF909F908F909C
:102C80007F906F9008956F927F928F929F92AF92F4
:102C9000BF92CF92DF92EF92FF920F931F93CF9349
:102CA000DF93FC01609050017090510180905201BF
:102CB00090905301D0915401C0915501B0915601AB
:102CC000A09157012085318542855385648575859E
:102CD00086859785A080B180C280D380E480F5800E
:102CE0000681178172D0A22EB32EC42ED52EE62EC9
:102CF000F72E082F192FE1E0262D372D482D592DBD
:102D00006D2F7C2F8B2F9A2F75D008F4E0E08E2F3B
:102D1000DF91CF911F910F91FF90EF90DF90CF90B7
:102D2000BF90AF909F908F907F906F90089585E0B7
:102D300084BD81E080936E0008951F920F920FB6BC
:102D40000F9211242F933F934F935F936F937F9331
:102D50008F939F93AF9320915001309151014091F7
:102D6000520150915301609154017091550180912D
:102D7000560190915701A0E131D02093500130933A
:102D80005101409352015093530160935401709349
:102D90005501809356019093570115BAAF919F91B9
:102DA0008F917F916F915F914F913F912F910F90F4
:102DB0000FBE0F901F901895EE0FFF1F0024001CF0
:102DC0000BBE0790F691E02D09942A0D3B1D4C1D7A
:102DD0005D1D6E1D7F1D801F911F08950024A7FD9E
:102DE00000942A0F301D401D501D601D701D801D58
:102DF000901D08952A153B054C055D056E057F0560
:102E0000800791070895FB01DC0102C001900D923B
:0C2E100041505040D8F70895F894FFCFCF
:102E1C0002300131010000303132333435363700A5
:00000001FF
